:020000040800F2
:1000000038080020A901000893300008452E000898
:1000100091300008A1150008EB3600080000000030
:100020000000000000000000000000001134000883
:10003000DB1500080000000021330008133400081D
:10004000C3010008C3010008C3010008C301000880
:10005000C3010008C3010008C3010008C301000870
:10006000C3010008C3010008C3010008A51500086A
:10007000C3010008C3010008C3010008C301000850
:10008000C3010008C3010008C3010008C301000840
:10009000C3010008C3010008C3010008DD15000802
:1000A000C3010008C3010008C3010008C301000820
:1000B000C3010008C3010008C3010008C301000810
:1000C000C3010008C3010008C3010008C301000800
:1000D000C3010008C3010008C3010008C3010008F0
:1000E000C3010008C3010008C301000800F002F8C2
:1000F00000F04AF80AA090E8000C82448344AAF178
:100100000107DA4501D100F03FF8AFF2090EBAE875
:100110000F0013F0010F18BFFB1A43F0010318473B
:10012000AC4B0000CC4B0000103A24BF78C878C11B
:10013000FAD8520724BF30C830C144BF04680C60ED
:10014000704700000023002400250026103A28BF35
:1001500078C1FBD8520728BF30C148BF0B60704739
:10016000662904F0D281642900F082800020704763
:100170001FB500F035FC04000020002103F0DCFE78
:10018000E0601FBD10B510BD00F02AFD1146FFF75D
:10019000EFFF03F063FC00F048FD03B4FFF7F2FF4C
:1001A00003BC00F08BFD0000094880470948004768
:1001B000FEE7FEE7FEE7FEE7FEE7FEE7FEE7FEE717
:1001C000FEE7FEE704480549054A064B7047000074
:1001D0008F340008ED0000083802002038080020A5
:1001E00038040020380400200FB47CB50C0009AAA4
:1001F000009001D02044401E084B7B44694601908A
:10020000089800F0CCFB05461CB10020694600F0C0
:10021000D9FB28467CBC5DF814FB0000D107000028
:1002200070B5044685690068C10601D5302600E036
:100230002026C00707D070BDD4E901213046904781
:10024000206A401C20626D1EF6D570BD70B5044654
:1002500085690078C00707D170BDD4E9012120204D
:100260009047206A401C20626D1EF6D570BD0000CC
:100270002DE9F0410646002410687529314616A57F
:1002800010D0AFF30080002802DA404213A507E047
:1002900031688A0701D512A502E0490704D511A5E6
:1002A000012401E0AFF3008000210A2206F12407B7
:1002B00009E0B0FBF2FCB0FBF2F302FB1C003030B3
:1002C00078541846491C0028F3D123462A46304664
:1002D000BDE8F04100F0F6B8000000002D0000007D
:1002E0002B000000200000002DE9F05F8946044645
:1002F0004FF0000ADFF874B1FB44C0F820A020469C
:10030000E1688847002874D0252806D0D4E9012167
:100310009047206A401C2062F1E700265F46204695
:10032000E16888472028054607DB312D05D278197A
:1003300010F8200C08B10643F1E7B00701D526F00C
:100340000406C4F81CA00027C4F818A02A2D09D060
:10035000284603F009FA38B304EB8708303DC8F8A3
:10036000185019E059F8041B204604EB87029161EC
:10037000E1688847012F054618D1E069002820DA96
:1003800026F020061DE0D8F8180000EB800005EBF1
:1003900040003038C8F818002046E1688847054614
:1003A00003F0E2F90028EED1012F0AD02E2D08D15A
:1003B0002046E16888477F1C0546022F46F020064C
:1003C000C4DBA069002803DA404246F00106A061C0
:1003D000F00701D026F010066C2D0BD0682D09D047
:1003E0004C2D39D06A2D35D0742D35D07A2D33D09F
:1003F00016E038E0E1682F4620468847B8420546B7
:1004000009D16C2F26D04FF48060E1680643204666
:100410008847054604E06C2F1AD04FF480700643DD
:100420000DB3A5F14100192802D8203546F4006625
:100430004A462946204626604E46FFF791FE80B187
:1004400001280BD0F61D26F0070000F1080956E739
:100450004020E4E78020D8E70020D6E706F1040931
:100460004DE7284652E7206ABDE8F09F2849000082
:100470004FF0000200B5134694469646203922BF3D
:10048000A0E80C50A0E80C50B1F12001BFF4F7AF88
:10049000090728BFA0E80C5048BF0CC05DF804EB6A
:1004A000890028BF40F8042B08BF704748BF20F8D8
:1004B000022B11F0804F18BF00F8012B70477047D6
:1004C000704770472DE9F0470D469946924604461D
:1004D00000F124080168880604D5E06921F01001C4
:1004E000216000E00120A84201DD471B00E0002759
:1004F000A1697A1902EB0900081AA0612078C006E8
:1005000002D42046FFF78CFE002608E0D4E9012142
:100510001AF806009047206A401C761C20624E455F
:10052000F4DB2078C0060AD52046FFF779FE06E006
:10053000D4E9012130209047206A401C2062381EF7
:10054000A7F10107F4DC07E0D4E9012118F8050060
:100550009047206A401C2062281EA5F10105F3DCAB
:100560002046FFF773FE2078000602D50220BDE882
:10057000F0870120FBE770472DE9FF4F0C461E4630
:100580004FF0FF378BB0D2E90001DDF860800A90B0
:100590008A46C1F30A5505B93D46002108464FF089
:1005A0000000BAF1000F00F4400005DA00EB800013
:1005B0004FF4400101EA50004FEA9059B9F1010FA0
:1005C00000DDB9460A9850EA4A000ED044F61050B1
:1005D000A5F2FF3545432F14B8F1000F1ED0754228
:1005E000291E1EDDC9F100021CE0B8F1010F4FF019
:1005F000000001D0302103E0F24305E02154401C0B
:10060000B042FBDB30460022002121540B99C1F897
:100610000880C1E900200FB0BDE8F08FBD1B6D1C44
:10062000DEE74A4600DA694206A800F063FA06AB44
:1006300093E8070003AB83E8070050460A9900F0EF
:1006400044FB8DE80700A0F500501F380090039888
:10065000002D0ADD42F21F014A460844002303A987
:100660000390684600F0ADFD09E0A0F500504A4651
:100670001F38002303A90390684600F0B7FD8DE8FA
:1006800007000004000C03D04FF0FF30410800E0E9
:100690001046B8F1000F03D00022009215461EE06C
:1006A000751E05D400F0A0F9303262556D1EF9D5E3
:1006B000B3460122084302D000227F1C04E02078C8
:1006C000302801D100227F1E002A099784D01DE026
:1006D000112D07DA00F088F9303262556D1C50EAAE
:1006E0000102F5D1084302D00098C8B10EE0002104
:1006F000681E05E0235C625C63542254401E491C62
:100700008142F7DBAB46A81B401E0990002004F88D
:100710000B000B98099AC0F80880C0E9002B7AE713
:1007200011264FF0000857E72DE9F04F88460446A0
:10073000D21D22F0070191B0D1E90001CDE90A01F3
:1007400002F0D4FF02460B98C00F01D02D2007E025
:100750002068810701D52B2002E0202101EAC0009A
:10076000032A099001D0072A05DB034641462046AB
:1007700000F080F90BE12078800601D5E06900E007
:100780000620B8F1650F814606D0B8F1660F18D083
:10079000B8F1670F70D131E00020B9F1110F00906E
:1007A00001DB112301E009F101030AAA01A90CA848
:1007B000FFF7E2FEDDE90C70002609F10105834632
:1007C00047E001204B4600904FF000470AAA01A9DC
:1007D0000CA8FFF7D1FEDDE90DB00C995D460026AF
:1007E00010B909F101000D18B9EB050003D4C0F1EF
:1007F000FF3609F10105A5EB09002BE0B9F1010F66
:1008000001DA4FF001090020B9F1110F00904846BC
:1008100001DD112300E003460AAA01A90CA8FFF795
:10082000ABFEDDE90C704D460026834620780007BC
:100830000AD4AB4500DA5D4601A8012D04DD41195B
:1008400011F8011C302907D04F4502DA17F1040FC7
:1008500004DA012082460FE06D1EEEE7002F02DC75
:10086000ED1B3E4403E0781CA84200DD7D1CB81B54
:1008700000F1010A4FF000472078000703D4AA4591
:1008800001DB4FF0FF3A0021B7F1004F0DF14308B3
:100890008DF8431024D002202B23002F01DA7F4251
:1008A0002D230A21021EA0F1010000DC5FB197FB9D
:1008B000F1FC97FBF1F201FB1C7C17460CF1300CAC
:1008C00008F801CDEEE7A8F10100037021880905C1
:1008D00001D5452100E06521A0F1010800F8011CC7
:1008E00009980FA9A1EB0807FF1D00B101204119CC
:1008F00001EBEA70A1693844081A401EA061207813
:10090000C00602D42046FFF78BFC099828B1D4E931
:1009100001219047206A401C20622078C00622D521
:100920002046FFF77DFC1EE0002E04DBB34502DD10
:1009300001A8805D00E03020D4E901219047206AC1
:10094000401C2062761CAAF101005FEA000A0AD16D
:1009500000F046F8C0680168405CD4E90121904786
:10096000206A401C2062281EA5F10105DCDC07E09E
:10097000D4E9012118F8010B9047206A401C20623D
:10098000381EA7F10107F3DC2046FFF75FFC0320C8
:1009900011B041E601694A1C02610878704700B550
:1009A0008FB0CDE901310021059105497944CDE9A8
:1009B000031011466846FFF797FC0FB000BD00001A
:1009C000E5FFFFFF0A6802F8010B0A607047D1E9F2
:1009D00000239A4202D2531C0B6010707047000033
:1009E00000487047F401002030B5B0F10A024FEA28
:1009F000900E71F100034EEA817EB0EB0E0061EBC8
:100A000091014FEA101E4EEA017E10EB0E0041EB01
:100A100011114FEA102E4EEA016E10EB0E0041EB61
:100A200011214FEA104E4EEA014E10EB0E0041EB41
:100A30001141401841F100014FEAD00040EA4170F5
:100A40004FEAD10110EB80054FEA810444EA90742B
:100A500044EB01046D1944EB0404521BA3414FF015
:100A6000000348BF0A3200D530BD401C41F10001EF
:100A700030BD00002DE9F0411F4604460326016801
:100A8000072A01F4006004DB08B116A505E016A5ED
:100A900003E008B115A500E015A521F010002060C5
:100AA000A069C01EA0610FB1401EA0612046FFF7E3
:100AB000B7FB4FB1D4E9012138469047206A401C6A
:100AC0002062C01C206206E0206AFAE7D4E9012116
:100AD00015F8010B9047761EF8D22046FFF7B6FBBB
:100AE000BDE8F0814E414E006E616E00494E4600F9
:100AF000696E66002DE9F047814616468AB0354892
:100B000078440DC88DE80D0032487844801C03AC51
:100B10000DC884E80D0041F69B300844372190FB56
:100B2000F1F290FBF1F5A5F1800501FB12041B3CED
:100B300002D56442012000E00020DFF898A0804642
:100B40000027FA44AAF1BE0A0EE0E0070AD03246B6
:100B5000684607EB470101230AEB810100F046FBE1
:100B60008DE8070064107F1C002CEED1194F7F44E4
:100B7000AE3F19E0E80715D007EB04100DF1180A95
:100B800090E80E008AE80E00C068F04201D1981982
:100B900008903246012306A903A800F027FB03AB07
:100BA00083E807006D10641C002DE3D14FF00103B2
:100BB00032466946B8F1000F03A802D000F001FBED
:100BC00001E000F013FBC9E90001C9F808200AB0F0
:100BD000BDE8F087B041000000487047D401002014
:100BE0007546FFF7F9FFAE4605006946534620F00B
:100BF0000700854618B020B5FFF7E4FABDE82040AD
:100C00004FF000064FF000074FF000084FF0000BC8
:100C100021F00701AC46ACE8C009ACE8C009ACE87B
:100C2000C009ACE8C0098D46704710B50446AFF363
:100C300000802046BDE81040FFF7AFBA4FF0013CFE
:100C400050F8042B51F8043B9A4221D1A2EB0C033B
:100C5000934313EACC1317D150F8042B51F8043BFB
:100C60009A4215D1A2EB0C03934313EACC130BD198
:100C700050F8042B51F8043B9A4209D1A2EB0C0323
:100C8000934313EACC13DBD04FF00000704700BF52
:100C9000D01A01BAB1FA81F101F0180122FA01F07B
:100CA000CB40C1F12001DBB2C0B2C01A2CFA01F373
:100CB000D11A914311EAC311E6D1704701491820B6
:100CC000ABBEFEE72600020070475FEA400C08BF9B
:100CD00091F0000F4FEA8C234FEAC12243EA5151B1
:100CE0004FEA1C5018BF00F5F0404FEA300018BF23
:100CF00041F000415FEA6C5C00F02980BCF1FF3FED
:100D000008BF40F080407047130C06BF12044FF03C
:100D1000100C4FF0000C130E04BF12020CF1080C63
:100D2000130F04BF12010CF1040C930F04BF9200C7
:100D30000CF1020CD30F04BF52000CF1010C114650
:100D40004FF00002A0F11F00A0EB0C00704711F063
:100D5000004F08BF704731F000413FF4D5AF0B0C96
:100D600006BF09044FF0100C4FF0000C0B0E04BF2F
:100D700009020CF1080C0B0F04BF09010CF1040C63
:100D80008B0F04BF89000CF1020CCB0F04BF49008C
:100D90000CF1010CCCF12003A0EB0C0022FA03F3C0
:100DA00002FA0CF241EA030100F10100704720F061
:100DB0007F4C80EA030023F07F47ACEB070303F589
:100DC0007C5300F0004003F1FF032DE980494FEA16
:100DD000154B09B44FEA144325EA0B4E24EA0348A5
:100DE0000FF2042606EB132749083E785FEA320229
:100DF00003FB0667C7F5000707FB06F64FEA543703
:100E00004FEAD64606F1020607FB066CCCF1005C01
:100E10004FEA1C472CEA074C07FB06F40CFB06F5CF
:100E200004EB15464FEA961634BF00204FF0004001
:100E30004FEAD13706FB07FC4FEA1C4C0CFB0BF7C3
:100E4000D21B03FB0CF761EB07010CFB0EF7B0EBB9
:100E5000074072EB17420CFB08F734BFA2EB0742C6
:100E6000B2EB074261EB17414FEA0C444FEA91079E
:100E700006FB07FC4FEA1C4C0CFB0BF7B0EBC74022
:100E800072EB573203FB0CF734BFA2EBC742B2EB55
:100E9000C74261EB57310CFB0EF7B0EBC70072EBAA
:100EA00057720CFB08F734BFA2EBC702B2EBC702C4
:100EB00061EB5771039F4FEA816141EA921104EBA4
:100EC000CC044FEAD1374FEA826206FB07FC42EAC4
:100ED00090124FEA80604FEA1C4C0CFB0BF7D21BC0
:100EE00003FB0CF761EB07010CFB0EF7B0EB0740BF
:100EF00072EB17420CFB08F734BFA2EB0742B2EBD0
:100F0000074261EB17414FEA8C554FEA910704EB1A
:100F10009C2406FB07FC4FEA1C4C0CFB0BF7B0EBC8
:100F2000C74072EB573203FB0CF734BFA2EBC7424A
:100F3000B2EBC74261EB57310CFB0EF7B0EBC700C9
:100F400072EB57720CFB08F734BFA2EBC702B2EB8F
:100F5000C70261EB577115EB4C254FEA816141EAFD
:100F600092114FEA82624FEAD13742EA901206FBB1
:100F700007FC44F100044FEA80604FEA1C4C0CFB74
:100F80000BF7D21B03FB0CF761EB07010CFB0EF711
:100F9000B0EB074072EB17420CFB08F734BFA2EB33
:100FA0000742B2EB074261EB174115EB1C154FEA04
:100FB000813141EA92414FEA823242EA90424FEA5D
:100FC00080304FEA0C7644F1000448EA03434EEACD
:100FD0000B484FF0000EB2EB080C71EB030724BF77
:100FE000624639464EEB0E0E4FF0000B0018524190
:100FF00049414BEB0B0BB2EB080C71EB03077BF198
:10100000000B24BF624639464EEB0E0E4FF0000B2C
:101010000018524149414BEB0B0BB2EB080C71EB42
:1010200003077BF1000B24BF624639464EEB0E0EE0
:1010300051EA020718BF46F0010616EB0E7655F18D
:10104000000254F1000103D5BDE88901BDE8008824
:10105000BDE88901BDE80048B619524141EB0101E4
:10106000A3F10103704780807F7E7D7C7B7A797855
:10107000777676757473727171706F6E6E6D6C6C5D
:101080006B6A6A69686867666665646463636261FF
:101090006160605F5F5E5E5D5D5C5C5B5B5A5A5980
:1010A00059585857575656555555545453535252EC
:1010B0005251515050504F4F4F4E4E4D4D4D4C4C44
:1010C0004C4B4B4B4A4A4A4949494848484747478D
:1010D00047464646454545444444444343434342CA
:1010E000424242414141002B9C4630D477002BD0F4
:1010F0001CB54FEA370703B44FF010004FF0100152
:10110000BAF1000F06D0BCF1000FDCBF40F00800C0
:1011100040F008014FF000000FBCBDE810400BF19B
:10112000010BBBF1010F08BF5FEA170722BF12F1E5
:10113000010211F101014FF0004143F1000300F001
:10114000004043EA00007047F9D35708D0E746EA69
:10115000064613F1400F4FEA16461FDD13F1200F2C
:10116000DFBF16430A46002120335B42BED0C3F1E5
:10117000200746EA064602FA07F74FEA164646EA0D
:101180000706C3F1200722FA03F201FA07F721FA52
:1011900003F14FF0000342EA0702A7E746EA02061E
:1011A00046EA06464FEA164646EA0106BCBF46EA4C
:1011B0000646360C4FF000034FF000024FF00001DE
:1011C00094E72DE9804C9A46934670B491E8380034
:1011D00007C831EA400C48BF34EA430C03D5FFF797
:1011E000E6FDFFF780FFF0BCBDE8008C2DE9804CE8
:1011F0009A46934670B491E8380007C810F0804FC3
:1012000008BF13F0804F03D100F005F8FFF76BFF24
:10121000F0BCBDE8008C20F07F4780EA030023F09B
:101220007F4C07EB0C03A3F57C5300F00040A3F1C7
:10123000FE0392F0000F00F0B38095F0000F00F075
:1012400077802DE901494FEA11404FEA144621EA1F
:10125000004800FB06FC24EA064708FB06F607FBED
:1012600008F800FB07F718EB06484CEB164C4FEA62
:10127000124B18EB07484FEA15464CEB174022EA91
:101280000B4E0BFB06FC25EA06470EFB06F607FB9A
:101290000EFE0BFB07F71EEB064E4CEB164C4FF009
:1012A00000061EEB074E4CEB174B18EB0B0840F1FA
:1012B000000018EB0E0B58EB000840F100008F1AED
:1012C0004FF000013CBFC943661B14BFB5EB040CD3
:1012D00000213CBFC943F61B4FEA17444EEA8E0E6D
:1012E00027EA04454FEA1C4704FB07622CEA074C37
:1012F00005FB07F70CFB05F604FB0CFC16EB074699
:1013000042EB174216EB0C4642EB1C421BEB060667
:1013100058EB0202414146EA9E0601D5BDE801892B
:10132000B619524141EB0101A3F10103BDE8018966
:101330004FEA14454FEA114724EA054621EA074CD3
:1013400005FB07F406FB07F70CFB06F105FB0CFC9D
:1013500011EB074144EB17444FEA124711EB0C41E4
:1013600044EB1C4422EA074C05FB07F206FB07F797
:101370000CFB06F605FB0CFC16EB074642EB17428E
:1013800016EB0C4642EB1C456A1854F1000148BFAD
:101390007047B619524141EB0101A3F101037047B7
:1013A00095F0000F37D04FEA11424FEA144721EA77
:1013B000024624EA074C02FB07F106FB07F70CFB89
:1013C00006F402FB0CFC14EB074441EB17414FEA17
:1013D000154714EB0C4441EB1C4125EA074C02FB7A
:1013E00007F506FB07F70CFB06F602FB0CFC16EBF9
:1013F000074645EB174516EB0C4645EB1C42121908
:1014000051F1000148BF7047B619524141EB01014B
:10141000A3F1010370474FEA14454FEA114724EA4C
:10142000054621EA074C05FB07F106FB07F70CFB15
:1014300006F24FF0000605FB0CFC12EB074241EBF5
:10144000174112EB0C4251EB1C4148BF70479218F8
:1014500041EB0101A3F101037047000070B50446A0
:1014600000688168C943C90717D1816821F001016B
:10147000816000F0B1FD05460AE000BF00F0ACFD60
:10148000401B022804D920688068C043C00706D0EA
:1014900020688068C043C007F0D0002070BDA06AFB
:1014A00040F01000A062E06A40F00100E06201201C
:1014B00070BD10B50146406A826A12F0500F05D027
:1014C000006A026BBDE8104008461047816A41F48B
:1014D0000071816201688968C1F3424107290CD11A
:1014E000017B51B9816A21F480718162816AC904EA
:1014F00003D4816A41F00101816200F06DF910BDF1
:1015000010B5406A816A41F040018162C16A41F0D0
:101510000401C16200F089F910BD10B5406A00F005
:1015200083F910BDF8B5002604460096006881686E
:10153000C943C9072DD0816841F001018160164877
:1015400016490068B0FBF1F000E0401E0090002852
:10155000FBD100F041FD054616E000BF00F03CFD68
:10156000401B022810D920688068C043C0070BD0F8
:10157000A06A40F01000A062E06A40F00100E06262
:1015800084F824600120F8BD20688068C043C0074B
:10159000E4D10020F8BD00003400002040420F00DC
:1015A000FEE70000014800F09BBA0000A800002000
:1015B00030B590F840500124AC40C56B6C600468B5
:1015C00063604368102B036803D099600068C260B1
:1015D00030BD9A600068C16030BD704710B54020D2
:1015E00000F0F4FB802000F0F1FB4FF4807000F07D
:1015F000EDFBBDE810404FF4007000F0E7BB72B6A1
:10160000FEE70000F8B500250446009590F8240098
:1016100001280BD0012084F824002046FFF71EFF8C
:101620002046FFF77FFF060002D050E00220F8BD01
:10163000A06A20F4885040F00200A062022000F06E
:1016400069FD25490968B1FBF0F0400000E0401E4B
:1016500000900028FBD12068816841F0080181607A
:1016600000F0BAFC074608E000F0B6FCC01B0A28F0
:1016700003D920688068000715D4206880680007B7
:10168000F2D42068816841F00401816000F0A4FC7C
:10169000074612E000F0A0FCC01B0A280DD9206804
:1016A0008068400709D5A06A20F0020040F01000D1
:1016B000A06284F824500120F8BD206880684007AB
:1016C000E8D4A06A20F0020040F00100A06284F893
:1016D00024503046F8BD000034000020F8B5002446
:1016E000009490F824202546012A12D0012280F887
:1016F00024204A681F23072A0DD20668776B521EE2
:1017000002EB820293409F430B6893401F43776331
:1017100019E00220F8BD06680D2A0AD2376BD21FE5
:1017200002EB820293409F430B6893401F43376351
:1017300009E0F76A0D3A02EB820293409F430B687F
:1017400093401F43F7620A68072306680A2A0AD3F0
:10175000F7680A3A02EB420293409F438B6893403A
:101760001F43F76008E0376902EB420293409F4352
:101770008B6893401F4337610A68102A01D0112AF1
:1017800020D1124B02689A4217D193681B0219D4D8
:10179000936843F4000393600968102912D10C493F
:1017A0000C4A0968B1FBF2F101EB8101490000E04C
:1017B000491E00910029FBD104E0816A41F020011B
:1017C0008162012480F824502046F8BD00240140A5
:1017D0003400002040420F0010B5006810498842D4
:1017E0001DD1104A1188A2F12000436919444161BA
:1017F000528883691A44826103785B1CDBB20370F0
:101800000A2B0CD30A23B1FBF3F400F124010C8062
:10181000B2FBF3F24A80002141618161017010BD89
:101820000024014020000020704770472DE9F0415E
:101830004FF0000704003D467ED0A06A002628B97C
:10184000E66284F82460204600F07EF82046FFF728
:1018500005FEA16AC90600D420B1A06A40F01000BC
:10186000A06269E0A16A21F4885141F00201A162FD
:101870006268E169237B0A4347EA43010A43A1689E
:101880004FF48077B94209D0012907D05FF00001F9
:1018900094F814C0BCF1010F02D00AE03946F7E712
:1018A000F3B1A36A43F02003A362E36A43F00103A8
:1018B000E3622368D3F804C02CF4694C4CEA010CB1
:1018C000C3F804C021688B68DFF870C003EA0C031A
:1018D00013438B60A168B9420BD0012909D00CE0F9
:1018E000DFF85CC0A3690CEB43330B4343F40061A6
:1018F000DFE7218A0D05A5F580152168CB6A23F461
:1019000070032B43CB62216889680E4B19409142CA
:1019100008D1E662A16A21F0020141F00101A16251
:10192000BDE8F081A06A20F0020040F01000A06243
:10193000E06A40F00100E0620120F1E7FDF7E1FF1D
:1019400000E0FFFFFE0E1FFF70B586B000250646C3
:1019500000950195029503950068194988422DD19B
:101960001849886940F400708861886900F4007043
:101970000490886940F0040088618869694600F035
:10198000040004900320009001900F4800F02AFA10
:101990000F4C0E48C4E900058020C4E90250400005
:1019A0002061800060612020C4E90605204600F027
:1019B00041F908B1FFF723FE3462666206B070BDDC
:1019C00000240140001002400008014008000240CD
:1019D000A80000202DE9F047894604463B490068ED
:1019E0003B4F0E1D9046884201D0B84207D1306867
:1019F00010F4702F03D001252846BDE8F08794F835
:101A0000240001280CD0012084F824002046FFF790
:101A100089FD05004FF0000004D084F82400EBE7B6
:101A20000220EAE7A16A40F60162914341F4807125
:101A3000A1622168B94218D1326812F4702F14D013
:101A4000A16A41F48011A1623168490505D5A16AF6
:101A500021F4005141F48051A162A16AC9040AD560
:101A6000E16A21F00601E16206E0A26A22F4801236
:101A7000A2624968E9E7E06284F82400216A154817
:101A80008862216A1448C862216A14480863216880
:101A90006FF0020008602068816841F48071816005
:101AA000216843464A464C31206A00F0F1F820682C
:101AB0008168C1F342410729816803D041F4801154
:101AC000816099E741F4A001FAE700000024014099
:101AD00000280140B31400081B1500080115000878
:101AE0002DE9F05FC16B0C6801680B68D0F840C04D
:101AF000042202FA0CF2494DDFF824A1494E4A4F64
:101B0000DFF828B1DFF828E122422CD05A072AD585
:101B10000A68920603D40A6822F004020A60016887
:101B2000A94201D1042219E0514501D1402215E01A
:101B3000B14202D14FF4806210E0B94202D14FF4B9
:101B400080420BE0594502D14FF4802206E07145F6
:101B500002D14FF4800201E04FF080622F49083932
:101B60004A60C16A3BE04FF0020808FA0CF818EA34
:101B7000040F4FF000094FF0010235D05FEA83787F
:101B800032D50B689B0605D40B6823F00A030B6063
:101B900080F821200168A94201D1022219E05145B3
:101BA00001D1202215E0B14202D14FF4007210E0C1
:101BB000B94202D14FF400520BE0594502D14FF423
:101BC000003206E0714502D14FF4001201E04FF0FF
:101BD0000072124908394A6080F82090816A002911
:101BE0001AD0BDE8F05F0847082505FA0CF5254234
:101BF00012D01B0710D50B6823F00E030B6090F872
:101C00004010C36B02FA01F15960826380F8212011
:101C100080F82090016BE2E7BDE8F09F08000240E9
:101C20001C000240300002404400024058000240C4
:101C30006C00024030B528B308C813491422194477
:101C4000B1FBF2F18900C163104981630221417740
:101C50001A6843F6F0718A43D0E900142143D0E9B1
:101C600002452C432143046921434469214384698B
:101C7000214311431960002141630122427701771A
:101C8000084630BD012030BDF8FFFDBF0000024016
:101C900070B5044690F82000002501280CD00120E2
:101CA00084F8200094F821600020012E06D084F8EA
:101CB00020000225284670BD022070BD022684F84F
:101CC0002160A0632068066826F0010606602046B1
:101CD000FFF76EFCE06A00282068016802D041F03E
:101CE0000E0106E021F0040101602068016841F066
:101CF0000A0101602068016841F001010160D9E733
:101D000070B5044600F068F90546601C02D004482E
:101D10000078044400F060F9401BA042FAD370BD83
:101D20002800002070B5054600F056F9244B254CDC
:101D3000254A402D12D0802D1FD099158D422BD1D0
:101D4000D568451B0A2D39D3D060184600F03AF902
:101D5000002833D1607940F002002EE05168411A2A
:101D60000A292BD350604021184600F02BF9002897
:101D700024D1607940F001001FE09168411A0A29DE
:101D80001CD390608021184600F01CF9002815D162
:101D9000607940F0080010E04FF400718D420DD1E1
:101DA0001569451B0A2D09D31061184600F00AF980
:101DB000002803D1607940F00400607170BD00001C
:101DC000000C01403800002000000020044910B53C
:101DD0000A68024202D00860FFF7A4FF10BD0000AD
:101DE000140401402DE9F84FDFF8B8910024A9F15F
:101DF000040B23460F2709F1040AABF1040EC9E0D6
:101E00000125A5402A40AA427DD1674ED1F804C0E1
:101E1000ACEB0608B44532D014DCBCF1030F3AD069
:101E200009DCBCF1000F2AD0BCF1010F1CD0BCF1C1
:101E3000020F31D11DE0BCF1110F17D0BCF1120F10
:101E40002AD119E0B8F5881F19D006DCB8F5803F13
:101E500015D0B8F5801F1FD111E0B8F5001F0ED0C6
:101E6000B8F5041F18D10AE0CB6815E0CB681B1D3C
:101E700012E0CB6808330FE0CB680C330CE08B68C2
:101E80002BB1012B4FF0080303D0456104E004237C
:101E900002E0056100E00023FF2A01D8064601E0C8
:101EA00000F104064FEA840501D9A5F12005D6F812
:101EB000008007FA05FC28EA0C0803FA05F548EA51
:101EC0000508C6F800804D68ED0062D5374DAE6953
:101ED00046F00106AE61AD6924F0030605F0010588
:101EE0000095334D06EB050CDCF80850A607360FBD
:101EF00007FA06F825EA0805DFF8B880404503D15F
:101F00004FF0000817E044E0DFF8AC80404502D114
:101F10004FF001080FE0DFF8A480404502D14FF0F8
:101F2000020808E0DFF89880404502D14FF003082E
:101F300001E04FF0040808FA06F848EA0508CCF872
:101F400008804D68D9F80060ED024D4601D5164372
:101F500000E096432E604D68DAF80060AD02554609
:101F600001D5164300E096432E604D68DBF8006013
:101F7000AD035D4601D5164300E096432E604D68E3
:101F8000DEF80060ED03754601D5164300E0964388
:101F90002E60641C0D682A46E5407FF431AFBDE831
:101FA000F88F0000080401400000111000100240EA
:101FB0000000014000080140000C014000100140F9
:101FC000001401408068084000D0012070470AB129
:101FD000016170470904FBE7014880687047000011
:101FE000280000200248816802781144816070470F
:101FF00028000020074810B5016841F01001016079
:10200000032000F075F80F2000F006F800F024F827
:10201000002010BD0020024070B50D4D04464FF465
:102020007A712878B1FBF0F00A490968B1FBF0F049
:1020300000F02EFD48B9102C07D200222146501E78
:1020400000F036F800206C6070BD012070BD00000B
:1020500028000020340000200C4808B5816941F0B8
:1020600001018161816901F001010091C16941F0C3
:102070008051C161C06900F08050009004484168FF
:1020800021F0E06141F00071416008BD00100240A4
:1020900000000140002809DB00F01F0201219140EF
:1020A0004009800000F1E020C0F8001170470000F6
:1020B000F0B40E4B1B680C46C3F30223C3F10705B3
:1020C000042D00D90425191D072901D2002300E0A1
:1020D000DB1E012606FA05F1491E214099409E406B
:1020E000761E16403143F0BC01F027BB0CED00E03A
:1020F000064900F0070208684FF6FF03184040EA5F
:102100000220034A10430860704700000CED00E015
:102110000000FA0510B501460020234C012922D009
:10212000022939D010291DD161682268D20119D540
:102130001E48C1F38342C903805C0AD561681B4A0B
:10214000C1F34041921E515C194AB2FBF1F1484380
:1021500001E0184948436168490203D44000032163
:10216000B0FBF1F010BD226AC2F30121012903D1B5
:10217000920701D5C80310BD022905D1626A9207F2
:1021800002D549F6404010BD0329FCD121688903DE
:10219000F9D54FF2244010BD00F02AF96168C1F36F
:1021A0008131491C4900DBE700100240024600086B
:1021B00000127A0000093D002DE9F8430546007839
:1021C000354CC00754D0E0690026C00008D4E0694F
:1021D00040F08050E061E069012600F080500090FE
:1021E0002E480168C90512D40168804641F4807107
:1021F0000160FFF7F1FE074605E000BFFFF7ECFEC8
:10220000C01B642823D8D8F80000C005F6D5206A82
:1022100010F4407021D0A98801F4407181421CD093
:10222000206A1F49012220F440700A6000220A60DF
:102230002062C00711D0FFF7CFFE074641F2883871
:1022400008E000BFFFF7C8FEC11B414502D90320CB
:10225000BDE8F883206A8007F4D5206A696820F415
:102260004070084320621EB1E06920F08050E061B8
:102270002878800705D56068A96820F440400843A5
:1022800060602878C00605D56068E96820F48000A1
:10229000084360600020DBE700100240007000404F
:1022A000400442422DE9F0470F46050061D0434EFD
:1022B000306800F00700B84209D2306820F007000B
:1022C00038433060306800F00700B84251D12868C8
:1022D0003B4C810712D5400703D5606840F4E060AD
:1022E00060602878000703D5606840F46050606043
:1022F0006068A96820F0F000084360602878C00793
:1023000028D06868012810D02168022810D08907D9
:1023100000292EDA616821F0030101436160FFF7B3
:102320005BFE804641F288390DE021688903EFE7C2
:102330008901EDE7FFF750FEA0EB0801494502D9FE
:102340000320BDE8F0876068696800F00C00B0EB1E
:10235000810FEFD1306800F00700B8420BD9306828
:1023600020F0070038433060306800F00700B842C2
:1023700001D00120E5E72878400705D56068E968C5
:1023800020F4E060084360602878000706D56068A4
:10239000296920F4605040EAC100606000F038F81C
:1023A0006168084AC1F30311515CC84006490860DE
:1023B00006480068FFF730FE0020C2E70020024018
:1023C0000010024012460008340000202C000020BB
:1023D0000448054900684968044AC1F30221515C78
:1023E000C840704734000020001002402246000818
:1023F0000448054900684968044AC1F3C221515C98
:10240000C8407047340000200010024022460008F7
:102410000E4A51680E4801F00C03042B11D0082B12
:102420000FD10C48C1F38343C903C05C0AD551687E
:10243000084AC1F34041921E515C054A5043B0FB2B
:10244000F1F0704704494843704700000010024013
:1024500000127A00F045000800093D002DE9F84F10
:10246000040070D02078C04DC00749D06868C0F320
:102470008100012807D06868C0F38100022809D1D3
:102480006868C00306D52868800339D560680028CD
:10249000E7D035E06068B0F5803F0BD010B1B0F503
:1024A000A02F11D0286820F480302860286820F4FC
:1024B000802002E0286840F480302860606890B195
:1024C000FFF78AFD06460AE0286840F4802028606D
:1024D000F0E700BFFFF780FD801B642873D82868F1
:1024E0008003F7D50CE0FFF777FD064605E000BF57
:1024F000FFF772FD801B6428F0D828688003F7D4AA
:1025000020789A4E80074FF001094FF0000839D526
:10251000686810F00C0F07D06868C0F381000228CB
:1025200009D16868C00306D42868800714D52069DB
:10253000012808D110E02069B0B1C6F80090FFF77B
:102540004BFD074605E00AE1FFF746FDC01B0228E8
:10255000C4D828688007F7D52868616920F0F8009A
:1025600040EAC10028600DE0C6F80080FFF734FDA6
:10257000074604E0FFF730FDC01B022823D8286877
:102580008007F7D4207800072CD57948A169D9B104
:10259000C0F80090FFF720FD074604E0FFF71CFDA0
:1025A000C01B02280FD8686A8007F7D571484FF41E
:1025B000FA510068B0FBF1F0009000BF0098411E96
:1025C0000091FAD20EE080E0C0F80080FFF704FD31
:1025D000074604E0FFF700FDC01B022875D8686AB3
:1025E0008007F7D42078400760D5E8690027C0004D
:1025F00008D4E86940F08050E861E869012700F0FC
:10260000805000905C480168C90513D40168834676
:1026100041F480710160FFF7DFFC824606E000BFF5
:10262000FFF7DAFCA0EB0A0064284ED8DBF80000C4
:10263000C005F5D5E06801280AD008B1052813D0F7
:10264000286A20F001002862286A20F0040002E0D5
:10265000286A40F001002862E06841F2883B98B1A6
:10266000FFF7BAFC82460BE0286A40F004002862BB
:10267000EEE700BFFFF7B0FCA0EB0A0159455AD8BE
:10268000286A8007F6D50CE0FFF7A6FC824605E035
:10269000FFF7A2FCA0EB0A0159454CD8286A800735
:1026A000F6D41FB1E86920F08050E861E06988B392
:1026B0006968C1F38101022944D00228C6F860800C
:1026C00004D0FFF789FC044638E034E0FFF784FCCF
:1026D000074604E0FFF780FCC01B02282BD82868BF
:1026E0008001F7D4206AB0F5803F05D16868A16801
:1026F00020F4003008436860D4E9080108436968A1
:1027000021F4741108436860C6F86090FFF764FC18
:10271000044606E025E000BFFFF75EFC001B022830
:1027200009D828688001F7D51BE000BFFFF754FCEB
:10273000001B022802D90320BDE8F88F2868800119
:10274000F4D40EE00128F7D06868226A00F48031E2
:10275000914204D1616A00F47010884201D00120D6
:10276000EAE70020E8E700000010024000004242D3
:1027700080044242340000200070004070B5040024
:1027800009D0606A002540B125616561A56294F8B1
:10279000510040B10CE0012070BD6068B0F5827F4F
:1027A000F4D0E561F2E784F85050204600F040F89C
:1027B000022084F851002068016821F04001016086
:1027C000A088218900F4827001F404410843A189A2
:1027D00001F400610843217C01F002010843217DDE
:1027E00001F001010843218B01F400710843217FAE
:1027F00001F03801084394F8201001F080010843EB
:10280000218D01F40051084321680860A06904216A
:1028100001EA1040216848602068C16921F4006124
:10282000C1616565012084F85100002070BD000081
:1028300030B585B00024009401940294039400689C
:102840001449884223D11448816941F4805181613F
:10285000816901F480510491816941F00401816131
:1028600080690E4D00F004000490A020009002202A
:1028700001900320039069462846FFF7B3FA4020F1
:10288000CDE90004694628460294FFF7ABFA05B08B
:1028900030BD00000030014000100240000801403F
:1028A0002DE9FF4F81B01D46934604464FF00109C4
:1028B0000E9EFFF791FB074694F8510061680128CE
:1028C00006D0B1F5827F3CD1A168C9BB042838D1BC
:1028D0000298002871D0BBF1000FFBD0002DF9D079
:1028E00094F8500001282CD04FF0010A84F850A031
:1028F00094F85100042802D0052084F851004FF0CC
:102900000008C4F85480C4F838B0E587A587029958
:102910002163E586A586C4F84080C4F84480206819
:102920000168490603D4016841F040010160E06894
:10293000B0F5006F606808D0F0B3012D49D081E098
:10294000FFE7022005B0BDE8F08F08B1012D39D1B5
:10295000206B21680088C860206B801C2063E08E9B
:10296000401EE0862EE02068816889070FD5E18E41
:1029700069B1B9F1010F0AD1216B0988C160206BDF
:10298000801C2063E08E401EE0864FF00009206826
:102990008168C9070CD0E18F51B1C068A16B088074
:1029A000A06B801CA063E08F401EE0874FF0010900
:1029B000FFF712FBC01B01E00BE067E0B04201D360
:1029C000701C50D1E08E0028CDD1E08F0028CAD1F4
:1029D0003EE0206B216800780873206B401C206368
:1029E000E08E401EE0862DE02068816889070FD5C3
:1029F000E18E69B1B9F1010F0AD1216B0978017338
:102A0000206B401C2063E08E401EE0864FF00009E2
:102A100020688168C9070CD0E18F51B1C068A16BF3
:102A20000870A06B401CA063E08F401EE0874FF051
:102A30000109FFF7D1FAC01BB04202D3701C01D0CC
:102A400011E086B1E08E0028CED1E08F0028CBD1F6
:102A50003A463146204600F064FC50B120206065C3
:102A600084F8508012E084F851A084F8508003204C
:102A700068E7A06818B92068C1688068009084F889
:102A800051A084F85080606D0028F1D0012059E7F2
:102A900010B5401EB0F1807F01D3012010BD4FF072
:102AA000E02460610F21601700F047FE0020A06164
:102AB00007202061002010BD70B590F83C20012A4D
:102AC00026D0012480F83C40022280F83D20036893
:102AD0005A689D6822F070060A6832435A600D4BAE
:102AE00002689A4208D0B2F1804F05D00A4B9A4250
:102AF00002D00A4B9A4204D1496825F08003194359
:102B0000916080F83D40002180F83C10084670BD7F
:102B1000022070BD002C014000040040000800406D
:102B200010B5040003D094F83D0010B107E0012077
:102B300010BD002084F83C00204600F01FF8022061
:102B400084F83D00211D206800F0A2FC012084F8DB
:102B5000460084F83E0084F83F0084F8400084F882
:102B6000410084F8420084F8430084F8440084F86B
:102B7000450084F83D00002010BD000008B5006845
:102B80000649884208D10648C16941F00201C16185
:102B9000C06900F00200009008BD00000004004081
:102BA0000010024090F83D10012901D0012070472B
:102BB000022180F83D1000680B49884208D0B0F12E
:102BC000804F05D00949884202D00949884204D182
:102BD000816801F00701062903D0016841F0010175
:102BE0000160002070470000002C014000040040FC
:102BF0000008004070B5044690F83C00002501280C
:102C000017D0012684F83C60022084F83D0020683B
:102C1000826822F0770222F47F428260086850289E
:102C200038D00DDC20284FD005DC90B3102811D10E
:102C30004AE0022070BD302846D040280AD13BE04F
:102C400060282FD070280DD0B0F5805F03D0B0F58C
:102C5000005F12D0012584F83D60002084F83C001C
:102C6000284670BDCB68D1E90121206800F04CFCFA
:102C70002068816841F0770109E0CB68D1E9012142
:102C8000206800F041FC2068816841F48041816047
:102C9000E1E719E0CA684968206800F047FC502164
:102CA000206806E0CA684968206800F050FC60218E
:102CB000206800F033FCCEE7CA684968206800F05D
:102CC00035FC40212068F4E7226801461046F0E711
:102CD00070B5040004D094F84100002510B106E05E
:102CE000012070BD84F84050204600F023F82420D5
:102CF00084F841002068C16821F40051C160204679
:102D000000F05EFC2068016921F4904101612068B7
:102D1000416921F02A0141612068C16841F40051F4
:102D2000C1606564202084F8410084F84200656336
:102D3000002070BD30B585B0002400940194029449
:102D4000039400681449884224D11448816941F4ED
:102D500080418161816901F480410491816941F080
:102D60000401816180690E4D00F0040004904FF46D
:102D700000700090022001900320039069462846CD
:102D8000FFF730F82815CDE900046946284602947B
:102D9000FFF728F805B030BD0038014000100240B0
:102DA000000801402DE9F843044690F84100984698
:102DB00016460D46202802D00220BDE8F88385B1D2
:102DC0007EB100206064212084F84100FFF704F9FF
:102DD000A6848146E684A0682027B0F5805F02D0F3
:102DE00003E00120E9E7206910B12E4600250EE03E
:102DF00000260CE08021204600F03EFCA8B9C6B1B8
:102E000016F8010B21684860E08C401EE084E08CDD
:102E10004B464FF00002CDF800800028EAD14FF079
:102E20004001204600F028FC40B184F841700320A6
:102E3000C3E735F8020BC0F30800E3E784F84170FC
:102E40000020BAE7FEE700003EB5002416480094D3
:102E5000019414490294016089158160047304751A
:102E600002250561C9024460C161FEF7DFFC08B1BB
:102E7000FEF7C5FB009401240620CDE90140694618
:102E80000948FEF72BFC08B1FEF7B9FB6946064876
:102E9000CDE90045FEF722FC002801D0FEF7AFFB8C
:102EA0003EBD00000024014078000020094808B51C
:102EB000416941F0010141614069002200F00100D7
:102EC000009011460B20FFF7F3F8BDE808400B20F7
:102ED000FFF7E0B8001002402DE9F04385B0002470
:102EE0002D480094019402940394816941F02001DB
:102EF0008161816901F020010491816941F004013F
:102F00008161816901F004010491816941F0080146
:102F100081618069DFF8849000F00800049001224C
:102F20004FF202014846FFF752F80122DFF87080A5
:102F3000170239464046FFF74AF800220821484662
:102F4000FFF745F84FF20A0001250326CDE90005F9
:102F5000CDE9024669464846FEF744FF00970396CE
:102F6000CDE9015469464046FEF73CFF4FF47070CE
:102F700000900C48CDE9010469464846FEF732FF4F
:102F8000002211461720FFF793F81720FFF782F869
:102F900005B0BDE8F083000000100240000C0140C5
:102FA0000008014000002110104810B50E490160D2
:102FB0004FF48271416000218160C1604FF4007262
:102FC0000161C0E905122022C0E907214162816246
:102FD0000A21C162FFF7D2FB002803D0BDE81040F0
:102FE000FEF70DBB10BD000000300140EC000020DA
:102FF00010B586B0002417480094019402940394FD
:10300000049413490594016041F61F41C0E901147D
:103010006321C0E903148461FFF782FD08B1FEF764
:10302000EEFA4FF48050009069460A48FFF7E2FD3F
:1030300008B1FEF7E4FA2020CDE9040404A905480C
:10304000FFF73AFD002801D0FEF7D9FA06B010BD0F
:1030500000040040440100200C4810B50A490160FA
:103060004FF416514160002181600C22C160C0E91B
:1030700004128161C161FFF72BFE002803D0BDE877
:103080001040FEF7BCBA10BD003801408C01002092
:10309000FEE7FEE770B500240021204600F0AAF804
:1030A0000025002000F01EF96D1CEDB2802DF8D334
:1030B000641CE4B2082CEFD370BD10B500204FF4AF
:1030C0007A720021491C9142FCD3401C9042F8D3F3
:1030D00000F04AF8AE2000F0E7F8D52000F0E4F860
:1030E000802000F0E1F8A82000F0DEF83F2000F09A
:1030F000DBF8D32000F0D8F8002000F0D5F840200D
:1031000000F0D2F8A12000F0CFF8C82000F0CCF8F1
:10311000DA2000F0C9F8122000F0C6F8812000F093
:10312000C3F8CF2000F0C0F8D92000F0BDF8F1209E
:1031300000F0BAF8DB2000F0B7F8302000F0B4F867
:10314000A42000F0B1F8A62000F0AEF88D2000F029
:10315000ABF8142000F0A8F8AF2000F0A5F8BDE807
:103160001040FFF797BF000010B50E4C012251032D
:103170002046FEF72CFF0122D1032046FEF727FF51
:10318000012291032046FEF722FF0122110320466F
:10319000FEF71DFF0122BDE8104011020248FEF7B4
:1031A00016BF0000000C0140000801402DE9F04767
:1031B0000F4E074600244FF400554FF080084FF49F
:1031C0000049002229463046FEF701FF28FA04F2A2
:1031D0003A4049463046FEF7FAFE0122294630467B
:1031E000FEF7F5FE641CE4B2082CEAD3BDE8F087D4
:1031F000000C014010B50C4640F0B00000F054F84F
:10320000102040EA141000F04FF804F00F00BDE861
:10321000104000F049B800002DE9F0410746CE000B
:103220004000083E801E15464FF0FF38F1B2C0B294
:10323000FFF7E0FF1148002400EB05152819A0F561
:10324000805090F8000E00F04DF8641CE4B2082C99
:10325000F4D308EB4700F1B2C0B2FFF7CBFF002474
:103260002819A0F5805090F8080E00F03BF8641C77
:10327000E4B2082CF4D3BDE8F08100002A4600082F
:103280002DE9F04115460E460746002406E03019A8
:10329000C1B23846FFF7C0FF641CE4B22A5D002AC1
:1032A000F5D1BDE8F081000070B50C4D06464FF435
:1032B0008074002221462846FEF789FE0022210163
:1032C0000748FEF784FE3046FFF770FF2146284688
:1032D000BDE870400122FEF77ABE00000008014000
:1032E000000C014070B50C4D06464FF4807400226E
:1032F00021462846FEF76BFE012211030748FEF720
:1033000066FE3046FFF752FF21462846BDE8704072
:103310000122FEF75CBE000000080140000C0140E5
:103320007047F8B515460E460B460092044601223A
:10333000022100F011F840B93346002280212046D6
:10334000009500F009F8002804D0606D40F02000DE
:1033500060650320F8BD00002DE9F8431E46914644
:1033600088460446089DFEF737FE401B351AFEF7D7
:1033700033FE074625480068C0F3CB30684338E089
:10338000701C37D0FEF728FEC01BA84203D215B12F
:10339000009860B32CE02068416821F0E0014160B2
:1033A0006068B0F5827F0BD1A068B0F5004F02D005
:1033B000B0F5806F04D12068016821F04001016000
:1033C000A06AB0F5005F09D12068016821F40051BE
:1033D00001602068016841F400510160012084F817
:1033E0005100002084F850000320BDE8F883002538
:1033F000401E00902068816838EA010004D0002156
:103400004945BDD10020F0E70121F9E73400002053
:103410007047FEF7E7BD30B593B028216846FDF749
:1034200027F814210AA8FDF723F8002501200F959D
:1034300010951195010412958DE8230004904FF426
:10344000E010CDE90810022407946846FFF706F85B
:1034500008B172B6FEE70AA90F2081E831004FF4E7
:103460008060CDE90D0502210AA8FEF71BFF08B117
:1034700072B6FEE74FF4004011900F940FA8FEF7CC
:103480009BFE002801D072B6FEE713B030BD704736
:10349000F0B50268194B1A4C1A4D4FF0804798420C
:1034A00005D0B84203D0A04201D0A84203D122F0F7
:1034B00070064A683243984205D0B84203D0A04211
:1034C00001D0A84203D122F44074CA6822434C6957
:1034D00022F08002224302608A68C2620A68826225
:1034E000984201D109690163012141610169C9075C
:1034F00003D0016921F001010161F0BD002C014000
:10350000000400400008004010B5846842EA03222D
:1035100024F47F440A432243826010BD826822F073
:1035200070020A4342F007018160704710B5036AD8
:10353000046A24F001040462846924F0F00444EA7B
:10354000021423F00A020A438461026210BD10B51E
:10355000036A046A24F010040462846923F0A0035F
:1035600024F4704444EA023243EA011182610162A8
:1035700010BD01680C3151E8002F22F4907241E82F
:103580000023002BF5D10168143151E8002F22F0FF
:10359000010241E80023002BF5D1016B012909D17B
:1035A00001680C3151E8002F22F0100241E800239D
:1035B000002BF5D1202180F84210002101637047D3
:1035C00070B5044600680169E26821F44051114376
:1035D00001612169A0680843616908432168CA68DC
:1035E00041F20C639A430243CA6020684169A269B0
:1035F00021F44071114341611E492068884202D183
:10360000FEF7F6FE01E0FEF7E3FE00EBC00101EB82
:103610000012606864218000B2FBF0F3B3FBF1F3A9
:103620006FF018067343B2FBF0F5B2FBF0F605EB52
:103630008305322303EB0515B5FBF1F5B6FBF1F677
:1036400005F0F00505EB0615B2FBF0F6B2FBF0F065
:10365000B0FBF1F06FF01802504306EB800003EB73
:103660000010B0FBF1F0216800F00F0028448860E2
:1036700070BD0000003801402DE9F8439846174618
:103680000D460446089E24E0701C22D0FEF7A4FCE0
:10369000A0EB0800B0421AD8CEB12068C168490733
:1036A00017D5802D15D0402D13D00168C9430907C7
:1036B0000FD401680025406800902046FFF759FFAD
:1036C0000820606484F840500120BDE8F88303209E
:1036D000FBE72068006835EA000004D00020B8420B
:1036E000D2D00020F1E70120F9E7FEE7490050EAD7
:1036F000C12018BF04204A0D18BF40F0010040F25D
:10370000FF72B2EB515F08BF40F00200012808BF12
:10371000052070474100080218BF04200A0E18BF98
:1037200040F001004FF07F4232EA010108BF40F053
:103730000200012808BF052070470907090E00286C
:1037400004DB00F1E02080F80014704700F00F0067
:1037500000F1E02080F8141D704700F035BC6FF0D8
:103760005E01080700F005BF30380A2801D20120A9
:1037700070470020704700002DE9F0474FF0684285
:1037800002EB40030C460546B3F1654F3CBF02EB2C
:103790004102B2F1654F7CD2C0F3C753C1F3C752A7
:1037A0009A1A1B2A06DD10F0004F14BF764877489E
:1037B000BDE8F08712F11A0F17DA11F0004F06D0AA
:1037C00010F0004F0CBF72487248BDE8F0872146E8
:1037D000284600F061FC0446FFF79CFF042808BF60
:1037E000FFF7BDFF2046BDE8F0874200B2EB410F76
:1037F00025D910F0004F19BF674F684E684F694ECA
:10380000224685F0004415460A4680F000411046E5
:103810000A1A5200B2F1807F40D248406249DFF874
:103820008CA110F0004F18D04FF03F48384600F000
:10383000F7FD07465146304600F0F2FD17E011F063
:10384000004F04BF00263746E2D010F0004F19BFEA
:10385000574F584E584F594EDAE74FF07C5838467C
:1038600000F0B2FB07465146304600F0ADFB06467D
:103870004146284600F0FEFC214600F0A5FB8246AA
:103880002146404600F0F6FC294600F0BFFD5146B7
:1038900000E037E000F000FC044604E02146284642
:1038A00000F0FAFB0446014600F0E4FC804644497F
:1038B00000F0E0FC434900F087FB414600F0DAFCF1
:1038C000414900F081FB414600F0D4FC3F4900F043
:1038D0007BFB414600F0CEFC3D4900F075FB054600
:1038E0004146204600F0C6FC294600F0C3FC3146A4
:1038F00000F06AFB214600F067FB3946BDE8F0475F
:1039000000F062BB4FF07F42B2EB400F28BFB2EB3A
:10391000410F03D2BDE8F047FFF71FBF40EA0103A4
:103920005B0008BF44F0FF410AD0B2EB400F08BF74
:10393000B2EB410F06D125F0804024F080410546CE
:103940000C4629E7B2EB400F12BF5FEA410245F097
:10395000FF4004F000413FF41FAF4A0092EA4003E9
:103960003FF51AAF002AACBF4FF09F464FF03E56CE
:10397000314600F07FFC05463146204600F07AFCD7
:1039800004462846214607E7DB0FC9BFDB0FC93FC6
:10399000DB0F4940DB0F49C00000C9BF22AAFDB9B7
:1039A0000000C93F22AAFD390060ED3EC30ACE37B0
:1039B000000049C022AA7DBA0000494022AA7D3AEF
:1039C0002DAD65BD8FB8D53D0FB511BE61C84C3E5C
:1039D000A8AAAABE2DE9F0410E4F15460E46044690
:1039E000002202213846FEF7F2FA04F01F0000F030
:1039F00093FA002404E0FF2000F08EFA3055641C96
:103A0000AC42F8DB3846BDE8F04101220221FEF766
:103A1000DEBA0000000C01402DE9F0410E4F1546C2
:103A20000E460446002202213846FEF7D0FA04F082
:103A30001F00203000F070FA002403E0305D00F039
:103A40006BFA641CAC42F9DB3846BDE8F041012258
:103A50000221FEF7BCBA0000000C0140AEB0FEF738
:103A6000C9FAFFF7D8FCFFF737FAFFF71FFAFFF79D
:103A7000EBF9FFF799FAFFF7EFFAFFF7B9FA4FF012
:103A8000000AD1465748FDF7BDFD5748FFF78AF8B1
:103A9000022256495348FDF79DFFFFF70EFBFFF743
:103AA000F9FA4FF4FA7000E03220FEF729F900F03D
:103AB000BFF80028F8D100F003F94D4C4C482030F5
:103AC00000F059F970BB4A484AA2203020210378FF
:103AD000D0F801A0D0F8059006A8FCF785FB0121DD
:103AE00006AA0846FFF7CCFB504600F041FACDE9A4
:103AF000000142A2202106A8FCF776FB06AA0121BC
:103B00000220FFF7BDFB484600F032FACDE9000184
:103B10003DA2202106A8FCF767FB06AA012103208D
:103B2000FFF7AEFB314A0020121D11885588A1F61F
:103B30000201494201FB01F2A5F6020505FB05263B
:103B4000334FBE420BDD084600F068FB8046284636
:103B500000F064FB4146FFF70FFE01212170BE42D9
:103B600001DC00202070C4F80100FEF735FA1F497F
:103B70002039CA69821A642A23D3C861FEF72CFA55
:103B800000F064FB234900F087FA8346484600F0C2
:103B9000EFF907468846504600F0EAF905460E461A
:103BA000584600F0E5F90A468DE8E5011AA28021A1
:103BB0000EA8FCF719FB82B264230EA91B48FFF77D
:103BC000F1F860794FF064010028094804D000F052
:103BD000FFF80020607101E000F0FAF83220FEF7F3
:103BE0008FF86BE7780000204401002020000020BF
:103BF000380000204D61783A256400005072653A23
:103C000025362E3266000000563A25372E336600E0
:103C100040420F0000007A44252E33662C252E32B8
:103C2000662C252E33660D0A000000008C01002052
:103C300010B586B0052204A91020FFF7CBFE12A113
:103C40000522D1E90001CDE9000169461020FFF706
:103C5000E3FE052202A91020FFF7BCFE052204A9FD
:103C60001020FFF7D9FE0020694602AA0C5C135C05
:103C7000A34203D04FF0FF3006B010BD401C052812
:103C8000F4DB0020F8E70000424545462100000033
:103C90007021072000F026B910B5084C002202213F
:103CA0002046FEF794F9E12000F036F92046012283
:103CB000BDE810400221FEF78AB90000000C014067
:103CC00010B5002208211A48FEF781F908210020CA
:103CD00000F008F93F21012000F004F90121022041
:103CE00000F000F90321084600F0FCF8032104204D
:103CF00000F0F8F80221052000F0F4F80E2106206B
:103D000000F0F0F805220B490A20FFF785FE09496B
:103D10000522491D1020FFF77FFE2021112000F011
:103D2000E1F80220FDF7ECFFBDE8104000F038B8E4
:103D3000000C01401A4C000870B50C4E05460022DC
:103D400002213046FEF743F9612000F0E5F8002437
:103D5000FF2000F0E1F82855641C202CF8DB3046E9
:103D6000BDE8704001220221FEF731B9000C01408C
:103D7000072000F09DB810B50446FFF7F9FF400694
:103D800007D4172000F094F8C00702D04FF0FF309E
:103D900010BD2046FFF7D0FFFFF77AFF002010BDCF
:103DA00010B50A4C002208212046FEF710F9002029
:103DB00000F07EF840F00301002000F093F8204668
:103DC0000122BDE810400821FEF701B9000C0140B6
:103DD00070B50E460446052219491020FFF71CFE57
:103DE000204600F049F816490522491F0A20FFF72E
:103DF00013FE00F027F8FEF7EFF805466FF0010418
:103E00000BE000BFFFF7B4FF810601D5002409E0F5
:103E1000C00602D54FF0FF3404E0FEF7DDF8401B8A
:103E2000B042EFD9FFF734FFFFF736FF0449052210
:103E3000491F0A20FFF7F0FDFFF7B2FF204670BDD3
:103E40001F4C000810B50B4C002208212046FEF73D
:103E5000BEF8002000F02CF820F0010040F0020134
:103E6000002000F03FF820460122BDE81040082164
:103E7000FEF7ADB8000C014070B50C4E05460022AF
:103E800002213046FEF7A3F8A02000F045F80024F8
:103E9000285D00F041F8641C202CF9DB3046BDE8B9
:103EA000704001220221FEF792B80000000C014090
:103EB00070B50B4D0446002202212846FEF787F814
:103EC00004F01F0000F028F8FF2000F025F8044659
:103ED000012202212846FEF77AF8204670BD000034
:103EE000000C014070B50B4D0E4604460022022125
:103EF0002846FEF76CF804F01F00203000F00CF8A4
:103F0000304600F009F82846BDE870400122022141
:103F1000FEF75DB8000C014001B582B04FF47A7035
:103F20000090012301AA02A90248FEF7B9FC9DF8FE
:103F300004000EBDEC00002010B500290AD008785E
:103F4000002807D005487844FCF778FE002801D007
:103F5000002010BD0248784410BD0000A60D0000EE
:103F60009E0D00000808A0F500114FEA31017047CE
:103F700043004FEAD30C4FEA3C0C43401FBF4007BD
:103F80000CF1605113F0FE4F70471CF0006F03D12D
:103F900000200CF0004170470CF0004343EA5070E1
:103FA00010B540EACC0000F0E6F900BF0000009236
:103FB0004FEA0001FFF7D6BF4FF000414FF000007D
:103FC000A1F500217047000090EA010F48BF81F081
:103FD000004100F12C82421A3CBF801A89184FEA36
:103FE000D0524FF07F4C1CEA410FA2EBD15318BFC7
:103FF0009CEA026F00F03B804FF0004C4CEA00203E
:104000004CEA012121FA03FC10EB0C0C1ED202F148
:10401000FF325FEA1C2040EBC25038BF70471CF0F3
:104020007F0F4FEA400C18BFBCF17F4F38BF70477D
:10403000C3F12003994008BF20F00100BCF17F4F7D
:1040400038BF7047A0F1C04000F0DBB94FEA3C0038
:10405000000A40EBC25028BF1CF0FF0F4FEA400C93
:10406000E6D018BFBCF17F4F38BF7047EAE79CEA43
:10407000026F05D010EA5C0F08BF00F000407047E7
:1040800010B500F078F900BF64FBBE3E014800F0B7
:104090003EBA00BF0000C07F4FF47F0C1CEAD01274
:1040A0001EBF1CEAD11392EA0C0F93EA0C0F00F02A
:1040B000858090EA010F48BF42F4807240F4000C02
:1040C00041F400002CF07F4120F07F4000B5814298
:1040D000A2EB03020FF2081CACEB504EC0F1000043
:1040E0009EF800E04FEA4E0E00FB0EFC38BF490080
:1040F0004FEA2C1C02F5FA020CFB0EF34FEACE1E1F
:104100004FEA112C4FEAC1210EEB635E42EB2242D3
:104110000EFB0CFC4FEA1C5300FB03114FEA112C61
:104120004FEA01310EFB0CFC4FEADC4C00FB0C119A
:10413000C14228BF09184CEB03335DF804EB10EBC8
:10414000410143EBC250B2F57C0F38BF704729D50F
:1041500012F0F00F1CBF00F1C04000F000407047AB
:10416000008182838485868788898B8C8D8E8F9150
:104170009293959697999A9C9D9FA0A2A3A5A7A874
:10418000AAACAEB0B2B3B5B7B9BCBEC0C2C5C7C9A0
:10419000CCCED1D4D7D9DCDFE2E6E9ECF0F3F7FA04
:1041A000FE0000004FEA400C0CF1807CBCF17E4F19
:1041B00028BF7047B0F1C04000F023B990EA010F6A
:1041C0000CEAD11348BF42F48072624538BF6345A0
:1041D00007D213F47F0F16D080EA010000F00040F0
:1041E000704710B500F0C7F8097EFC3E00F005B836
:1041F00080EA010000F00040704780EA010000F012
:10420000004000F0FEB812F47F0F04BF0248704770
:1042100080EA010000F0F5B80000C07F10F0004116
:1042200048BF4042B0FA80F310FA03F2C3F19D0395
:104230000BD051EAC35101EB1220530638BF70472F
:1042400000F1010008BF20F001007047B0FA80F3D0
:1042500010FA03F2C3F19D030AD0D90501EB122035
:10426000530638BF704700F1010008BF20F001007D
:10427000704700004FF47F0C1CEAD0121EBF1CEAEE
:10428000D11392EA0C0F93EA0C0F00F0478090EAEA
:10429000010F48BF42F480724FF0004C4CEA0020FE
:1042A0004CEA012102EB0302A0FB0113A2F500027C
:1042B000002918BF43F001035B0028BF4FEA330316
:1042C00042EB22425FEA132C4CEBC2502EBFBCEBF8
:1042D000436FB2F57C0F70474FEA036CBCF1004F9F
:1042E00008BF20F00100B2F57C0F38BF70470BD536
:1042F00082F0FF0212F5803FC8BF704700F1C04056
:10430000D8BF00F00040704700F5000C5FEA4C0C8D
:1043100048BF7047B0F1C04000F073B890EA010F99
:104320000CEAD11348BF42F48072624538BF63453E
:1043300004D280EA010000F00040704710B500F0A0
:104340001AF800BF8900013E00F007B800F009B874
:104350005FEA410C5FEA1C6C08D080EA010000F0C3
:1043600050B85FEA400C5FEA1C6CF6D14FF0004099
:10437000A0F5800070470EF1020E2EF0030E5EF8DD
:10438000044B244204D44FEA4102B2F17F4F11D8CA
:104390004FEA4003B3F17F4F0CD80ED14FEAD07CE7
:1043A000B2F17F4F0CEB4C0C0CF1020C08BF4CEB44
:1043B000D17C04E04FF0080C01E04FEAD17C0CEB1B
:1043C0004C0324FA03F404F00704B4F1040C06D2FD
:1043D0000EEB840CBDE810404CF0010C6047DFE8A8
:1043E0000CF0070802024FF00040A0F5800010BD5D
:1043F0000846420018BFD2F1807288BF00F000402A
:1044000010BDFF2141EAD050C005704780F0004048
:1044100090EA010F7FF5DFAD81F0004100F007B8B1
:1044200090EA010F48BF81F000413FF5D4AD421A38
:1044300004D882F00042A0EB020011444FEAD052AF
:104440004FF07F4C1CEA410FA2EBD15318BF9CEAFE
:10445000026F4AD04FF0004C4CEA00204CEA012198
:1044600021FA03FCB0EB0C0C0FD412F0FE0F36D087
:104470005FEA4C001DD5001240EBC25038BF7047B8
:104480001CF03F0F18BF70470BE0A2F101025FEA7A
:104490001C2040EBC25038BF70471CF07F0F18BF84
:1044A0007047C3F12003994014BF401E20F0010063
:1044B000704780084FEA122308BF7047B0FA80FCAB
:1044C000A2EB0C02CCF1280C60FA0CF093EA122F4C
:1044D00004BF00EBC25070474FEAC3707047130A25
:1044E0005FEADC1008BF7047F6E79CEA026F04D071
:1044F00010EA5C0F08BF0020704710B5FFF73BFFC4
:1045000040DFF63E81F000407047FCF70DB90CF03B
:104510000F03092B08BF082000F051800A2B0BD095
:10452000082B18BF704708BF1CF0400F0AD04FF08F
:1045300000004FF0000170471CF0400F18BF4FF013
:10454000004070471CF0100F08D020F0704300F0BE
:104550007F4242EAD3014FEA4370704700F0604067
:1045600021F07F4242EA000201F07F4040EA72708F
:1045700070474FF0FF0212EAD0521CBF92F0FF03C7
:104580008B42C2BFD14200EBC1507047002A0AD013
:10459000002B0BD0002900F00040A4BF40F0FE40EB
:1045A00040F40000704700F00040704743024FF0B5
:1045B0000B0C18BF4CF0806C7FF468AD70471CF496
:1045C000801F11D01CF4E02F03D06FEACC314900DA
:1045D00070474FF04050EFF3008222F0704242EA01
:1045E000000282F3008870474FF00000704701021C
:1045F00002030405060708090A0B0C0D0E0F101024
:10460000010202030405060708090A0B0C0D0E0F30
:104610001010000000000000000001020304060763
:10462000080900000000010203040000000000006F
:1046300000000000000000000000000000F8000082
:104640000000000000333000000000100C06100CC9
:104650000600000000000000000040C07840C07864
:104660004000043F04043F040400007088FC08304C
:104670000000001820FF211E0000F008F000E018E4
:10468000000000211C031E211E0000F0088870009D
:1046900000001E2123241927211010160E000000EF
:1046A00000000000000000000000000000E018040E
:1046B0000200000000071820400000020418E0007B
:1046C00000000040201807000000404080F08040BB
:1046D00040000202010F01020200000000F0000091
:1046E00000000101011F01010100000000000000A5
:1046F000000080B07000000000000000000000001A
:1047000000000001010101010101000000000000A2
:104710000000003030000000000000000000806059
:104720001804006018060100000000E010080810DE
:10473000E000000F102020100F00001010F8000003
:1047400000000020203F202000000070080808889A
:10475000700000302824222130000030088888486A
:1047600030000018202020110E000000C02010F89A
:10477000000000070424243F240000F8088888086B
:1047800008000019212020110E0000E01088881870
:104790000000000F112020110E0000380808C83852
:1047A00008000000003F0000000000708808088832
:1047B0007000001C222121221C0000E010080810BB
:1047C000E0000000312222110F00000000C0C000F4
:1047D00000000000003030000000000000800000F9
:1047E00000000000806000000000000080402010F9
:1047F00008000001020408102000404040404040F2
:104800004000040404040404040000081020408054
:104810000000002010080402010000704808080889
:10482000F0000000003036010000C030C828E81059
:10483000E0000718272423140B000000C038E00014
:104840000000203C23020227382008F8888888705E
:104850000000203F202020110E00C030080808086A
:104860003800071820202010080008F80808081051
:10487000E000203F202020100F0008F88888E8087A
:104880001000203F20202320180008F88888E8081E
:104890001000203F200003000000C0300808083846
:1048A000000007182020221E020008F80800000857
:1048B000F808203F210101213F20000808F80808DE
:1048C00000000020203F2020000000000808F80819
:1048D0000800C08080807F00000008F888C0281889
:1048E0000800203F20012638200008F808000000BA
:1048F0000000203F20202020300008F8F800F8F8C1
:104900000800203F003F003F200008F830C00008AA
:10491000F808203F200007183F00E01008080810A2
:10492000E0000F10202020100F0008F808080808E9
:10493000F000203F210101010000E01008080810EC
:10494000E0000F18242438504F0008F88888888821
:104950007000203F2000030C3020007088080808F9
:1049600038000038202121221C00180808F8080807
:1049700018000000203F2000000008F80800000890
:10498000F808001F202020201F000878880000C899
:104990003808000007380E010000F80800F8000889
:1049A000F800033C0700073C030008186880806893
:1049B000180820302C03032C30200838C800C838D1
:1049C00008000000203F2000000010080808C83838
:1049D00008002038262120201800000000FE0202D6
:1049E00002000000007F40404000000C30C000008A
:1049F0000000000000010638C00000020202FE00B4
:104A00000000004040407F0000000000040202025D
:104A10000400000000000000000000000000000092
:104A2000000080808080808080800002020400007E
:104A30000000000000000000000000008080808076
:104A400000000019242222223F2008F80080800064
:104A50000000003F112020110E0000000080808027
:104A60000000000E1120202011000000008080882E
:104A7000F800000E112020103F2000008080808070
:104A80000000001F222222221300008080F088886C
:104A900088180020203F20200000000080808080B7
:104AA0008000006B94949493600008F800808080EC
:104AB0000000203F210000203F2000809898000047
:104AC00000000020203F2020000000000080989877
:104AD000000000C08080807F000008F80000808017
:104AE0008000203F24022D302000000808F800003C
:104AF00000000020203F20200000808080808080F7
:104B00008000203F20003F20003F80800080808088
:104B10000000203F210000203F2000008080808096
:104B20000000001F202020201F00808000808000C7
:104B3000000080FFA12020110E0000000080808076
:104B40008000000E112020A0FF80808080008080E7
:104B5000800020203F212000010000008080808014
:104B600080000033242424241900008080E0808009
:104B700000000000001F2020000080800000008056
:104B80008000001F202020103F20808080000080B7
:104B9000808000010E3008060100808000800080C7
:104BA00080800F300C030C300F000080800080806C
:104BB00080000020312E0E31200080808000008097
:104BC000808080818E701806010000808080808047
:104BD00080000021302C2221300000000000807C69
:104BE000020200000000003F404000000000FF0003
:104BF000000000000000FF0000000002027C8000B6
:104C000000000040403F00000000000601010202D9
:104C100004040000000000000000344310100134C0
:104C20004310100104000008000000000000000212
:104C3000000100001000000002400000000000A081
:104C40000000000005400000000000C80000000057
:104C50000C4000000000409C0000000019400000D3
:104C60000020BCBE0000000034400000BFC91B8E05
:104C700000000004B5400000504BCFD06607E2CFE3
:104C8000010000006C4100003E8251AADFEEA73413
:104C900001000000D9420000DCB5A0E23A301F97C5
:104CA000FFFFFFFFB4450000FD25A0C8E9A3C14FE9
:104CB000FFFFFFFFFF3F000000000080000000003A
:104CC000FF3F00000000008000000000084D0008C9
:104CD000000000203800000028010008404D0008B6
:104CE0003800002000080000440100081C000000FB
:104CF00043000000F8FFFFFF0C0000000E00000062
:104D00000F0000002E000000000000000000000066
:104D10000000000000000000000000000000000093
:104D20000000000000000000000000000000000083
:104D300001000000100000000000000000127A00D6
:04000005080000ED02
:00000001FF
