:020000040800F2
:10000000585300205D020008B13B00084D35000840
:10001000AD3B000871090008D94800080000000045
:100020000000000000000000000000009D0100082A
:10003000930B000800000000F9010008AB3F000826
:1000400077020008770200087702000877020008AC
:10005000770200087702000877020008770200089C
:10006000770200087702000877020008770200088C
:10007000770200087702000877020008770200087C
:10008000770200087702000877020008770200086C
:10009000770200087702000877020008BF0B00080B
:1000A000770200087702000877020008770200084C
:1000B000770200087702000877020008770200083C
:1000C000770200087702000877020008770200082C
:1000D0007702000877020008C94800087702000884
:1000E000770200087702000877020008770200080C
:1000F000770200088D4000087702000877020008A8
:1001000077020008770200087702000877020008EB
:1001100077020008770200087702000877020008DB
:10012000790A0008770200087702000877020008C1
:1001300077020008770200087702000877020008BB
:1001400077020008770200087702000877020008AB
:10015000770200087702000877020008770200089B
:10016000770200087702000877020008770200088B
:1001700077020008770200087702000800000000FC
:100180007702000877020008DFF80CD000F0DAFAF6
:1001900000480047ED5F0008585300202C4B1968B9
:1001A0000868B0E8F04F80F30988BFF36F8F4FF015
:1001B000000080F3118870470000000008480068C4
:1001C000006880F308884FF0000080F3148862B65E
:1001D00061B6BFF34F8FBFF36F8F00DF00BF00BF6B
:1001E00008ED00E0DFF80C00016841F470010160E7
:1001F000704700BF88ED00E0EFF30980BFF36F8F19
:10020000134B1A681EF0100F08BF20ED108A20E96A
:10021000F04F106009B44FF0500080F31188BFF325
:100220004F8FBFF36F8F07F063FE4FF0000080F336
:10023000118809BC19680868B0E8F04F1EF0100F6B
:1002400008BFB0EC108A80F30988BFF36F8F704746
:1002500014000020EFF30580704700000648804737
:1002600006480047FEE7FEE7FEE7FEE7FEE7FEE79B
:10027000FEE7FEE7FEE7FEE7794000088901000897
:100280002DE9F05F0546002092469B4688460646CB
:10029000814640241BE0284641464746224600F05E
:1002A0009BF953465A46C01A914110D3114618463D
:1002B000224600F082F92D1A67EB01084F462246CC
:1002C0000120002100F079F917EB00094E41201EB2
:1002D000A4F10104DFDC484631462A464346BDE826
:1002E000F09F40EA01039B0703D009E008C9121FF1
:1002F00008C0042AFAD203E011F8013B00F8013BE0
:10030000521EF9D27047D2B201E000F8012B491E0B
:10031000FBD270470022F6E710B513460A460446A2
:100320001946FFF7F0FF204610BD2DE9FE4F80462D
:1003300081EA0300C00F0C46009021F0004123F039
:100340000045B8EB0200A94105D24046214690463F
:100350001C460B46024623F00040104347D0270DB1
:10036000C7F30A00C3F30A510290401A01904028D3
:100370006BDAC3F3130040F4801B0098924620B15F
:100380000023D2EB030A63EB0B0B01985946C0F133
:100390004002504600F011F906460D4650465946B7
:1003A000019A00F029F910EB08006141002487EA66
:1003B000115284EAE7731A4340D0009A62B3019A5B
:1003C000012A4FEA075215DC001B61EB02014FF0D6
:1003D000004202EA0752CDE90042001C41F58011BB
:1003E00032462B4600F060F903B0BDE8F08F40467E
:1003F0002146F9E7001B61EB0201001C41F5801367
:1004000000185B412018A2F5001747EB030140EAF2
:10041000D570B6196D4111E06D084FEA360645EA10
:10042000C0754FEA0752001B61EB0201001C41F549
:10043000801149084FEA30000019514132462B46DD
:1004400003B0BDE8F04F00F020B900980122400051
:100450000023D0EB020263EBE073009821464FEAE1
:10046000E074B8EB000061EB0401E9E783F00043BE
:100470005BE781F0004158E72DE9FE4F81EA030474
:1004800004F0004421F0004100944FF0000B23F0F1
:10049000004350EA01045ED052EA03045BD0C3F388
:1004A0000A54C1F30A552C44A4F2F3340194A0FB7E
:1004B0000254C1F3130141F48011C3F3130343F455
:1004C000801301FB024400FB034E840A970A44EAAE
:1004D000815447EA8357A4FB076802958D0A05FB00
:1004E00007854FEA932C04FB0C542705029D4FEA25
:1004F000065847EA1637B5EB08056EEB070C870E72
:10050000920E47EA811742EA8312A7FB0201B6EB7B
:100510000B0164EB00042B0D43EA0C335E1844EB33
:100520001C50DA465146E7FB0201C5F313044FEABB
:100530000B3343EA14534FEA0432019C43EA0603A7
:10054000A4F10C040294009CCDE900B400F0ACF8D6
:1005500003B0BDE8F08F00200146F9E700F000424B
:1005600030F000400AD0C10D01F56071C0F31600F3
:1005700042EA0151C208400711437047002001467A
:10058000704701F0004330B421F0004150EA01020D
:1005900006D00A0DA2F56072C1F31301002A02DC35
:1005A00030BC00207047440F44EAC104C100E01889
:1005B00030BC00EBC25000F031B8202A04DB203AF6
:1005C00000FA02F1002070479140C2F1200320FAA6
:1005D00003F3194390407047202A04DB203A21FAA4
:1005E00002F00021704721FA02F3D040C2F120024C
:1005F0009140084319467047202A06DBCB17203A62
:1006000041FA02F043EAE07306E041FA02F3D04017
:10061000C2F1200291400843194670470029A8BF43
:100620007047401C490008BF20F00100704710B41B
:10063000B0FA80FC00FA0CF050EA010404BF10BCD0
:10064000704749B1CCF1200421FA04F411FA0CF1FD
:1006500018BF012121430843A3EB0C01CB1D4FEA36
:1006600000614FEA102042BF002010BC704700EB31
:10067000C35010440029A4BF10BC7047401C49005F
:1006800008BF20F0010010BC704710B5141E73F1B4
:10069000000408DA401C41F1000192185B411A4342
:1006A00001D120F0010010BD2DE9F04D92469B468E
:1006B00011B1B1FA81F202E0B0FA80F22032904634
:1006C000FFF77BFF04460F4640EA0A0041EA0B01B0
:1006D00053465A46084313D0114653EA010019D035
:1006E000C8F140025046FFF777FF05460E465046D8
:1006F00059464246FFF761FF084305D0012004E058
:1007000020463946BDE8F08D0020054346EAE076F4
:100710002C4337430A986305E40AA0EB0800002243
:10072000FD0A44EA47540A3002D500200146E9E7B1
:10073000010510196941DDE9084500196941BDE865
:10074000F04DA2E7064C074D06E0E06840F00103DB
:1007500094E8070098471034AC42F6D3FFF718FD31
:100760009C940008BC94000870B50546AC6B206CE6
:1007700000F0500050BB206C40F4007020642068F2
:10078000806800F04050E8B9207ED8B92068C06A7F
:1007900000F4700020B12068806800F4806088B99F
:1007A0002068406820F0200021684860206C20F418
:1007B00080702064206C00F4805018B9206C40F0E8
:1007C00001002064204600F0C9FA0BE0206C00F024
:1007D000100018B1204600F048FB03E0A06BC16C8C
:1007E0002846884770BD70B50546AC6B4020206434
:1007F000606C40F004006064204600F036FB70BD81
:1008000070B50446A56B284600F02EFB70BD0000B5
:1008100055494A6822F440324A604A6843681A439C
:100820004A600268526822F4807203685A60026863
:100830005368026943EA022203685A6002685268F8
:1008400022F0407203685A600268526883681A4353
:1008500003685A600268926822F4006203689A6032
:1008600002689268C3681A4303689A603F4B826AC1
:100870009A4218D00268926822F0706203689A6007
:1008800002689268836A1A4303689A6002689268F1
:1008900022F0405203689A6002689268C36A1A4361
:1008A00003689A600BE00268926822F07062036845
:1008B0009A600268926822F0405203689A60026867
:1008C000926822F0020203689A6002689368027ECE
:1008D00043EA420203689A602022125CA2B10268D5
:1008E000526842F4006203685A600268526822F457
:1008F000604203685A6002685368426A521E43EAC3
:10090000423203685A6005E00268526822F40062CD
:1009100003685A600268D26A22F470020368DA62DD
:100920000268D36A828B521E43EA02520368DA627B
:100930000268926822F4007203689A600268936801
:1009400090F8302043EA422203689A600268926875
:1009500022F4806203689A6002689368426943EAFD
:10096000822203689A607047002301400100000F53
:1009700000BFFEE703468B4203DB934201DC01200C
:1009800070470020FCE700002DE9F84F07460C46B1
:1009900090464FF00009CA4600250026A346A01D38
:1009A00000900425A7F1500010283AD2DFE800F0AB
:1009B0001608190F1E2326292C2F323939393935BB
:1009C0004FF0340903254FF0400A01262BE04FF089
:1009D0003D0903254FF02E0A012624E04FF030098F
:1009E00021E04FF037094FF003081CE04FF03A09BF
:1009F0004FF0030817E04FF0410914E04FF04509AC
:100A000011E04FF049090EE04FF04D090BE04FF0B7
:100A1000510908E04FF0550905E01448D0F800905E
:100A200001E0BDE8F88F00BFB8F1030F01D1032545
:100A300000265DB16A000E4901EB49005946FFF7F7
:100A400050FC294648460B4A126890475EB1720036
:100A5000074901EB4A000099FFF743FC3146504635
:100A6000044A1268904700BFDBE70000C400002082
:100A7000DC4D0020B000002010B5024800F0D4FB8F
:100A800010BD0000580100200146087810381823D6
:100A9000B0FBF3F20848805CC865032A05D90868F2
:100AA0006FF30900001D886503E008686FF3090013
:100AB0008865886D70470000B08F000801460020EF
:100AC0008A6A8B69CBB932B1012A0DD0022A03D0D0
:100AD000032A10D10EE000BFCB6A03F08073B3F19C
:100AE000807F00D1012007E0CB6AB3F1C07F00D145
:100AF000012001E000E000BF34E08B69B3F5005F46
:100B00001AD132B1012A07D0022A03D0032A11D107
:100B10000AE000BF01200EE0CB6A03F08073B3F15E
:100B2000807F00D1012006E0CB6AB3F1C07F00D105
:100B3000012000E000BF15E032B1012A05D0022AF1
:100B400004D0032A0CD103E000BF00BF012008E05D
:100B5000CB6A03F08073B3F1807F00D1012000E005
:100B600000BF00BF704730B50468246824F48024B7
:100B700005682C60046863608468402C04D10468B4
:100B8000A2600468E16003E00468A1600468E260B8
:100B900030BD704770B5044607F098FF01280AD0B1
:100BA0004FF47A7060434FF47A71B0FBF1F5284648
:100BB00006F0DEFF02E0204600F016FD70BD10B525
:100BC0004FF4807000F044FD10BD72B600BFFEE728
:100BD00038B502460020009000BF92F83C00012882
:100BE00001D1022038BD012082F83C0000BF086816
:100BF000092816D91068C0680C780A3C04EB440533
:100C00000724AC40A0431468E0600C780A3C04EB75
:100C100044048868A0401468E46820431468E060D5
:100C200013E0106800690C7804EB44050724AC401D
:100C3000A043146820610C7804EB44048868A04049
:100C4000146824692043146820614868072817D273
:100C50001068406B0C79641E04EB84051F24AC40C3
:100C6000A04314686063088880B20C79641E04EBAA
:100C70008404A0401468646B20431468606331E00E
:100C800048680D2817D21068006B0C79E41F04EB3C
:100C900084051F24AC40A04314682063088880B2F8
:100CA0000C79E41F04EB8404A0401468246B2043F7
:100CB0001468206316E01068C06A0C790D3C04EBE0
:100CC00084051F24AC40A0431468E062088880B209
:100CD0000C790D3C04EB8404A0401468E46A2043C2
:100CE0001468E062194B1A4C1068A04206D10868DB
:100CF000122803D1586840F480005860144C1068E2
:100D0000A0421CD10868102802D00868112816D10A
:100D1000586840F400005860086810280FD10D484A
:100D200000680D4CB0FBF4F000EB80004000009038
:100D300002E00098401E009000980028F9D100BF02
:100D4000002082F83C0000BF00BF4BE700230140B9
:100D5000002001401000002040420F0070B52DED32
:100D6000088B82B004463349206888425ED13248FD
:100D700000883249096808443049086030480078E2
:100D8000401CC0B22E4908700A284FDB2B4800686F
:100D90000A21B0FBF1F080B208EE100AB8EE480A62
:100DA000DFED280A80EE201A11EE106A3046FFF7B8
:100DB000D5FB41EC1A0B9FED240B53EC102BFFF7E6
:100DC0005BFB41EC190BFFF7DCFB05462846FFF700
:100DD000C5FB41EC1B0B9FED1E0B53EC102BFFF7DB
:100DE00045FB41EC1A0B9FED1C0B53EC102BFFF74E
:100DF00043FB41EC190BFFF7C4FB019000200F49A6
:100E000008600F490870009002236A4601A914483F
:100E1000006807F095FB009838B14FF080501149F9
:100E20000860BFF34F8FBFF36F8F00BF02B0BDEC00
:100E3000088B70BD00200140F40000200401002058
:100E40000801002000F07F456666666666660A4017
:100E50009A9999999999C93F00000000000044406F
:100E6000FC00002004ED00E07047704770B50446B8
:100E700000250CB9012070BD1549A06A884200D038
:100E800000BF206C30B9204600F024F800206064D8
:100E900084F83C00206C00F0100088B9206C20F42D
:100EA000885040F0020020642046FFF7B1FC00208B
:100EB0006064206C20F0020040F00100206400E03B
:100EC000012500BF002084F83C0000BF2846D2E77F
:100ED0000100000F10B586B00446142101A8FFF7E9
:100EE00019FA2849206888424AD100BF00200090A2
:100EF0002548006840F4807023490860084600686F
:100F000000F48070009000BF00BF00BF0020009080
:100F10001D481438006840F001001B49143908606E
:100F20000846006800F00100009000BF00BF0220EA
:100F30000190032002900020039001A9134800F0C3
:100F400095FB1348134908600020486000211148B0
:100F50008160C1604FF48061016149004161890095
:100F600081614911C16100210162416200F07CFA96
:100F700008B1FFF72AFE00BF0648A063846300BFE4
:100F800006B010BD0020014044380240000002407D
:100F900010640240580100202DE9F84304460D4634
:100FA000164600200090804600BF94F83C000128BF
:100FB00002D10220BDE8F883012084F83C0000BF84
:100FC0002068806800F00100A0B92068806840F0C7
:100FD000010021688860564800685649B0FBF1F06E
:100FE00000EB4000009002E00098401E0090009846
:100FF0000028F9D12068806800F48070B0F5807F07
:1010000005D12068806820F480702168886020689D
:10101000806800F0010000287FD0206C40F2016160
:10102000884340F4807020642068406800F4806049
:1010300028B1206C20F4005040F480502064206CD3
:1010400000F48050B0F5805F04D1606C20F00600A1
:10105000606401E00020606400BF002084F83C0070
:1010600000BF354F3548A16BC8633548A16B086494
:101070003448A16BC8646FF02200216808602068C2
:10108000406840F08060216848602068806840F4D3
:10109000807021688860226802F14C0133462A463C
:1010A000A06B00F057FA8046786800F01F0018BB6C
:1010B00025492068884213D024492068884204D1F9
:1010C000381D006800F01F0050B121492068884297
:1010D0002BD11948001D006800F01F00102824D2F1
:1010E0002068806800F04050F8B92068806840F0BF
:1010F00080402168886018E013492068884214D134
:101100002068806800F0405078B92068806840F01E
:1011100080402168886008E0FFE7206C40F0100004
:101120002064606C40F001006064404642E70000CB
:101130001000002040420F00002301406907000812
:1011400001080008E70700080020014000210140D5
:101150000022014070B50446A56D00F08FFB0646E5
:1011600094F83500022808D08020606500BF002078
:1011700084F8340000BF012070BD2068006820F0B2
:101180001600216808602068406920F0800021680E
:101190004861206C08B9A06C28B12068006820F074
:1011A0000800216808602068006820F001002168BC
:1011B000086010E000F062FB801B05280BD920209E
:1011C0006065032084F8350000BF002084F83400F7
:1011D00000BF0320D0E72068006800F0010000286D
:1011E000E8D194F85C103F208840A860012084F882
:1011F000350000BF002084F8340000BF00BFBBE70B
:10120000014691F83500022803D08020486501206E
:101210007047052081F835000868006820F001005B
:101220000A6810600020F3E7F8B50446002000903B
:101230008C4800684FF41651B0FBF1F7A56D2E688D
:1012400094F85C1008208840304098B1206800680D
:1012500000F0040070B12068006820F004002168EC
:10126000086094F85C1008208840A860606D40F029
:101270000100606594F85C1001208840304068B13E
:101280002068406900F0800040B194F85C100120B3
:101290008840A860606D40F00200606594F85C10C2
:1012A00004208840304068B12068006800F00200E7
:1012B00040B194F85C1004208840A860606D40F054
:1012C0000400606594F85C1010208840304078B3CA
:1012D0002068006800F0080050B394F85C101020FB
:1012E0008840A8602068006800F4802080B12068F1
:1012F000006800F4002028B9206CC8B12046216C99
:10130000884715E0A06C98B12046A16C88470FE093
:101310002068006800F4807028B92068006820F018
:10132000080021680860206C10B12046216C8847B5
:1013300094F85C10202088403040002865D0206858
:10134000006800F0100000285FD094F85C102020A6
:101350008840A86094F83500052828D120680068E6
:1013600020F01600216808602068406920F08000A5
:1013700021684861206C08B9A06C28B12068006819
:1013800020F008002168086094F85C103F20884035
:10139000A860012084F8350000BF002084F83400E4
:1013A00000BF206D10B12046216D8847F8BD206830
:1013B000006800F4802080B12068006800F40020FC
:1013C00028B9606C10B12046616C88471DE0E06B65
:1013D000D8B12046E16B884717E02068006800F428
:1013E000807068B92068006820F0100021680860EB
:1013F000012084F8350000BF002084F8340000BFCD
:10140000E06B10B12046E16B8847606D38B3606DCA
:1014100000F00100F0B1052084F835002068006874
:1014200020F001002168086000BF0098401C009077
:10143000B84200D905E02068006800F001000028EB
:10144000F3D100BF012084F8350000BF002084F8EC
:10145000340000BFE06C10B12046E16C884700BF4B
:10146000A4E70000100000202DE9F041044600250B
:1014700000F004FA074614B90120BDE8F081606A63
:1014800000B100BF022084F8350000BF002084F8BE
:10149000340000BF2068006820F001002168086067
:1014A0000AE000F0EBF9C01B052805D92020606593
:1014B000032084F83500E0E72068006800F00100B0
:1014C0000028EED12068056821480540D4E90101D3
:1014D0000843E16808432169084361690843A16939
:1014E0000843E1690843216A08430543606A042808
:1014F00003D1D4E90B010843054320680560206847
:10150000456925F00705606A0543606A04280DD126
:10151000A06A0543E06A48B12046FFF7CFFA28B138
:1015200040206065012084F83500A6E72068456109
:101530002046FFF7A9FA064694F85C103F20884041
:10154000B06000206065012084F83500002094E739
:101550003F8010F02DE9F04704460D4616461F4621
:101560004FF00008D4F8589000BF94F834000128D8
:1015700002D10220BDE8F087012084F8340000BFCA
:1015800094F83500012825D1022084F83500002088
:1015900060653B46324629462046FFF7E4FA94F858
:1015A0005C103F208840C9F808002068006840F0BF
:1015B000160021680860206C28B12068006840F09F
:1015C0000800216808602068006840F00100216878
:1015D000086006E000BF002084F8340000BF4FF030
:1015E00002084046C6E7000070B5044600F046F920
:1015F00006462546681C10B104480078054400BF23
:1016000000F03CF9801BA842FAD370BD0C0000200A
:1016100038B50446B4F5807F14D1002000900A4804
:10162000006820B169460848006806F04BFB009846
:1016300038B14FF0805005490860BFF34F8FBFF3BA
:101640006F8F00BF38BD0000E800002004ED00E00F
:1016500010B5044604480068204020B102480460E8
:101660002046FFF7D5FF10BD143C0140F8B50246F7
:101670000B460025002400200021D6E0012606FAB2
:1016800001F51E6806EA0504AC4274D11E7906F025
:101690000306012E04D01E7906F00306022E13D194
:1016A00090684F000326BE40B0434F00DE68BE4046
:1016B00030439060506801268E40B0431E79C6F3D7
:1016C00000168E40304350601E7906F00306032E4C
:1016D00009D0D0684F000326BE40B0434F009E683B
:1016E000BE403043D0601E7906F00306022E13D1AF
:1016F000CF0802F1200656F827004E07F70E0F26F6
:10170000BE40B0434F07FF0E1E69BE403043CF08B6
:1017100002F1200646F8270010684F000326BE405D
:10172000B0431E7906F003064F00BE403043106000
:101730005E6806F44036002E76D000BF0026009684
:101740003C4E366846F480463A4F3E603E46366828
:1017500006F48046009600BF00BF374E8F0856F84B
:1017600027008E07370F0F26BE40B043334EB242DC
:1017700002D1002624E057E0314EB24201D10126C9
:101780001EE0304EB24201D1022619E02E4EB24286
:1017900001D1032614E02D4EB24201D104260FE000
:1017A0002B4EB24201D105260AE02A4EB24201D1A7
:1017B000062605E0284EB24201D1072600E00826A1
:1017C0008F073F0FBE4030431B4E8F0846F827005F
:1017D000224E3068A0435E6806F4801606B12043AE
:1017E0001E4E3060361D3068A0435E6806F4001659
:1017F00006B12043194E361D3060184E361F306832
:10180000A0435E6806F4003606B12043134E361F2F
:101810003060361F3068A0435E6806F4803606B13B
:1018200020430E4E083E3060491C1029FFF426AFBD
:10183000F8BD000044380240083801400000024072
:101840000004024000080240000C02400010024068
:101850000014024000180240001C0240083C0140F5
:10186000024613690B400BB1012000E000207047D5
:101870000AB1816101E00B0483617047014800688F
:1018800070470000040000200348006803490978FD
:101890000844014908607047040000200C00002043
:1018A00010B50D48006840F400700B490860084608
:1018B000006840F4806008600846006840F480706A
:1018C0000860032000F0E0F8052000F007F800F0C1
:1018D0005FF8002010BD0000003C02402DE9F041FF
:1018E00088B004460027B84600BF00200190234876
:1018F000006840F48070214908600846006800F4E0
:101900008070019000BF00BF02A903A800F092F907
:10191000069F1FB900F0B6F9054602E000F0B2F9E3
:1019200045001748B5FBF0F0A0F10108154816492D
:10193000086040F2E7311448C160C0F8048000211B
:1019400001618160816100F0C5FE064696B90E48CE
:1019500000F066FF06466EB92D2000F043F8102C0B
:1019600007D2002221462D2000F050F807480460DD
:1019700000E00126304608B0BDE8F0814038024062
:1019800040420F0000200040C0030020080000205B
:1019900008B500BF002000901148006840F4804066
:1019A0000F4908600846006800F48040009000BFBE
:1019B00000BF00BF00200090081F006840F080506A
:1019C000091F08600846006800F08050009000BFC2
:1019D00000BF00220F21901E00F018F808BD000083
:1019E000443802400146084600280DDB00BF00BF16
:1019F00000F01F0301229A4043099B0003F1E023FA
:101A0000C3F8002100BF00BF00BF70472DE9F05FA1
:101A100080460D461646002703F0E0F90746394692
:101A20002A46334601F00700C0F1070ABAF1040F55
:101A300002D94FF0040A01E0C0F1070AD14600F1D3
:101A4000040ABAF1070F02D24FF0000A01E0A0F138
:101A5000030AD4464FF0010A0AFA09FAAAF1010A68
:101A60000AEA020A0AFA0CFA4FF0010B0BFA0CFB15
:101A7000ABF1010B0BEA030B4AEA0B04214640468B
:101A800003F0B4F9BDE8F09F00BF00F00702064B79
:101A900019684FF6FF031940044B0B4343EA022138
:101AA000014B196000BF70470CED00E00000FA0523
:101AB00070B504460D460CB9012070BD5848006849
:101AC00000F00700A84209D255490D700846006889
:101AD00000F00700A84201D00120EEE7207800F0D6
:101AE000020002281DD1207800F00400042805D14E
:101AF0004C48006840F4E0504A490860207800F003
:101B00000800082805D14748006840F4604045496E
:101B100008604448006820F0F000A168084341498B
:101B20000860207800F00100A8B36068012807D1A0
:101B30003C4808380068C0F34040B8B90120BCE711
:101B40006068022802D06068032807D13548083849
:101B50000068C0F3406048B90120AEE7314808385A
:101B60000068C0F3400008B90120A6E72D480068CE
:101B700020F00300616808432A490860FFF77EFEF1
:101B8000064609E0FFF77AFE801B41F28831884261
:101B900002D9032091E707E02248006800F00C001A
:101BA0006168B0EB810FEDD11D48006800F00700BF
:101BB000A84209D91A490D700846006800F00700CC
:101BC000A84201D0012078E7207800F00400042822
:101BD00007D11448006820F4E050E1680843114937
:101BE0000860207800F00800082808D10D48006837
:101BF00020F46040216940EAC1000A49086000F011
:101C000061F808490968C1F30311074A515CC840EB
:101C10000649086006480068FFF760FE00204CE7B0
:101C2000003C024008380240B88F00081000002035
:101C3000080000200F2202600D4A126802F0030221
:101C400042600B4A126802F0F0028260084A126891
:101C500002F4E052C260064A126802F46042D208FE
:101C60000261044A126802F007020A60704700002D
:101C700008380240003C02400148006870470000FC
:101C80001000002000B5FFF7F7FF04490968C1F311
:101C90008221034A515CC84000BD00000838024060
:101CA000C88F000800B5FFF7E7FF04490968C1F3D2
:101CB0004231034A515CC84000BD00000838024070
:101CC000C88F00082DE9F047002400250026A14612
:101CD0002548006800F00C0020B1042805D0082831
:101CE0003AD105E0DFF8849039E0DFF8849036E0FF
:101CF0001D48001F006800F03F041B48001F0068DB
:101D000000F4800078B11A481749091F0968C1F327
:101D10008811A0FB01700146224600233846FEF7D9
:101D2000AFFA05460EE011480F49091F0968C1F3D3
:101D30008811A0FB01700146224600233846FEF7B9
:101D40009FFA05460848001F0068C0F30140401C88
:101D50004600B5FBF6F902E0DFF8109000BF00BFC7
:101D60004846BDE8F0870000083802400024F4002F
:101D700000127A00F8B504460CB90120F8BD2078AD
:101D800000F00100002874D0F948006800F00C0051
:101D900004280DD0F648006800F00C00082813D184
:101DA000F348001F006800F48000B0F5800F0BD1ED
:101DB000EF4808380068C0F34040002859D06068F8
:101DC000002856D10120D9E700BF6068B0F5803FF8
:101DD00008D1E7480838006840F48030E449083901
:101DE00008601EE06068B0F5A02F0DD1E04808380B
:101DF000006840F48020DE49083908600846006821
:101E000040F4803008600CE0D9480838006820F4BD
:101E10008030D749083908600846006820F48020DF
:101E2000086000BF606890B1FFF728FD054606E036
:101E3000FFF724FD401B642801D903209EE7CC480E
:101E400008380068C0F340400028F1D011E0FFF7E7
:101E500015FD054606E0FFF711FD401B642801D97A
:101E600003208BE7C24808380068C0F340400028D0
:101E7000F1D1207800F0020002285FD1BC48006850
:101E800000F00C0058B1BA48006800F00C000828B7
:101E90001CD1B748001F006800F48000B0B9B448F6
:101EA00008380068C0F3400020B1E068012801D084
:101EB000012063E7AE480838006820F0F800216987
:101EC00040EAC100AA490839086037E0E06800B379
:101ED0000120A8490860FFF7D1FC054606E0FFF79E
:101EE000CDFC401B022801D9032047E7A048083851
:101EF0000068C0F340000028F1D09D480838006811
:101F000020F0F800216940EAC100994908390860C9
:101F100014E0002097490860FFF7B0FC054606E092
:101F2000FFF7ACFC401B022801D9032026E79048AC
:101F300008380068C0F340000028F1D1207800F094
:101F4000080008282CD16069A8B101208A490860DE
:101F5000FFF794FC054606E0FFF790FC401B0228C3
:101F600001D903200AE782486C300068C0F34000C2
:101F70000028F1D014E000207F490860FFF77EFCC4
:101F8000054606E0FFF77AFC401B022801D9032032
:101F9000F4E677486C300068C0F340000028F1D1C7
:101FA000207800F00400042870D1002770483830F1
:101FB000006800F0805090B900BF002000906C488D
:101FC0003830006840F08050694938310860084670
:101FD000006800F08050009000BF00BF01276748F4
:101FE000006800F48070B0B96448006840F4807004
:101FF00062490860FFF742FC054606E0FFF73EFC39
:10200000401B022801D90320B8E65C48006800F4B0
:1020100080700028F2D000BFA068012808D1544881
:102020006830006840F001005149683108601DE0E7
:10203000A06805280DD14E486830006840F00400C3
:102040004B49683108600846006840F001000860AC
:102050000CE047486830006820F0010044496831CE
:1020600008600846006820F00400086000BFA0680F
:10207000A8B1FFF703FC054609E0FFF7FFFB401B93
:1020800041F28831884202D9032077E626E03848B9
:1020900068300068C0F340000028EED013E0FFF77E
:1020A000EDFB054608E0FFF7E9FB401B41F28831F4
:1020B000884201D9032061E62D4868300068C0F3EA
:1020C00040000028EFD1012F07D12948383000689F
:1020D00020F0805026493831086000BFA0690028F0
:1020E00045D02348006800F00C0008285DD0A069A6
:1020F000022845D100201F490866FFF7BFFB0546AF
:1021000006E0FFF7BBFB401B022801D9032035E6A0
:10211000174808380068C0F340600028F1D1D4E9BE
:1021200007010843616A40EA81110122A06AC2EBFB
:10213000500041EA00412C20005D41EA00600C495A
:10214000091F086001200B490866FFF797FB054649
:1021500006E0FFF793FB401B022801D903200DE6A0
:10216000034808380068C0F340600028F1D049E017
:102170000838024000004742800E4742007000408D
:10218000002021490866FFF779FB054606E0FFF7C6
:1021900075FB401B022801D90320EFE51B480068AE
:1021A000C0F340600028F2D12CE0A069012800D1E2
:1021B000E4E51648001D0668A069012820D006F451
:1021C0008001E06981421BD106F03F01206A814213
:1021D00016D147F6C0703040616AB0EB811F0FD155
:1021E00006F440310122A06AC2EB5000B1EB004F6F
:1021F00006D106F070612C20005DB1EB006F01D0BC
:102200000120BBE50020B9E500004742003802404C
:1022100010B504460CB9012010BD606A38B9606879
:10222000B0F5827F00D105E00021E16102E00021EC
:10223000216161610021A16294F8510028B9002058
:1022400084F85000204600F047F8022084F851003E
:102250002068006820F0400021680860A08800F431
:102260008270218901F404410843A18901F40061CD
:102270000843217C01F002010843217D01F00101A6
:102280000843218B01F400710843217F01F03801DC
:1022900008432021095D01F080010843218D01F4EC
:1022A00000510843216808600421A06901EA104038
:1022B00094F8241001F01001084321684860206858
:1022C000C06920F400602168C861002060650120B9
:1022D00084F8510000209FE710B586B00446142111
:1022E00001A8FEF717F81B492068884230D100BFCB
:1022F000002000901848006840F4804016490860AB
:102300000846006800F48040009000BF00BF00BF96
:102310000020009010481038006840F002000E497C
:10232000103908600846006800F00200009000BF05
:1023300000BF4FF460400190022002900020039003
:10234000032004900520059001A90448FFF78EF9A9
:1023500006B010BD00380040403802400004024082
:102360002DE9FE4F04460F4690461D460C9E012067
:102370000190FFF783FA814694F851B060680290AB
:10238000AA46BBF1010F0BD00298B0F5827F04D1B1
:10239000A06810B9BBF1040F02D00220BDE8FE8F87
:1023A0001FB1B8F1000F00D00DB90120F6E700BF52
:1023B00094F85000012801D10220EFE7012084F8B1
:1023C000500000BF94F85100042802D0052084F882
:1023D000510000206065C4F83880E587A587276331
:1023E000E586A586206460642068006800F04000EF
:1023F000402805D02068006840F04000216808604F
:10240000E068B0F5006F52D1606810B1BAF1010F09
:1024100009D1206B00882168C860206B801C206374
:10242000E08E401EE0863BE02068806800F00200FD
:10243000022810D1E08E70B1019801280BD1206BD9
:1024400000882168C860206B801C2063E08E401EDD
:10245000E086002001902068806800F0010068B1EB
:10246000E08F58B12068C068A16B0880A06B801C09
:10247000A063E08F401EE08701200190FFF7FEF986
:10248000A0EB0900B0420BD3701C48B1012084F8C6
:10249000510000BF002084F8500000BF03207DE7FA
:1024A000E08E0028C0D1E08F0028BDD152E06068E6
:1024B00010B1BAF1010F09D1206B007821680873BF
:1024C000206B401C2063E08E401EE0863CE02068CC
:1024D000806800F00200022810D1E08E70B10198EF
:1024E00001280BD1206B007821680873206B401CF9
:1024F0002063E08E401EE086002001902068806806
:1025000000F0010068B1E08F58B12068C068A16B8D
:102510000870A06B401CA063E08F401EE087012084
:102520000190FFF7ABF9A0EB0900B04201D3701C9A
:1025300000B94EB9012084F8510000BF002084F892
:10254000500000BF032029E7E08E0028BFD1E08FB4
:102550000028BCD14A463146204601F02BFB40B151
:102560002020606500BF002084F8500000BF0120DB
:1025700014E7A06850B900BF002000902068C06830
:10258000009020688068009000BF00BF012084F8A0
:10259000510000BF002084F8500000BF606D08B1FA
:1025A0000120FBE60020F9E67047704710B50346AE
:1025B000002200BF93F83C00012801D1022010BD89
:1025C000012083F83C0000BF22F0FF00CC6840EA05
:1025D000040222F440708C6840EA040222F4806015
:1025E0004C6840EA040222F400600C6840EA0402ED
:1025F00022F480500C6940EA040222F400504C6935
:1026000040EA040222F48040CC6940EA04021868DF
:10261000426400BF002083F83C0000BF00BFCEE74B
:1026200030B502460B4600BF92F83C00012801D1AC
:10263000022030BD012082F83C0000BF022082F859
:102640003D00106844681068816824F070041868C0
:10265000044310684460184D1068A8421BD01068ED
:10266000B0F1804F17D0154D1068A84213D0144D0B
:102670001068A8420FD0134D1068A8420BD0124D1D
:102680001068A84207D0114D1068A84203D0104D21
:102690001068A84205D121F08001586801431068F4
:1026A0008160012082F83D0000BF002082F83C00DC
:1026B00000BF00BFBDE70000000001400004004073
:1026C00000080040000C00400004014000400140B0
:1026D0000018004010B504460CB9012010BD94F854
:1026E0003D0028B9002084F83C00204600F026F880
:1026F000022084F83D00211D206801F0D3FC012058
:1027000084F8460000BF84F83E0001213F200155B7
:10271000402001554120015500BF00BF012084F831
:10272000420043200155442001554520015500BF7A
:10273000012084F83D000020D0E7000038B50446B1
:102740000E492068884217D100BF002000900C4835
:10275000006840F002000A4908600846006800F07E
:102760000200009000BF00BF002205212D20FFF7CE
:102770004DF92D20FFF736F938BD00000004014067
:1027800044380240014691F83D00012801D0012063
:102790007047022081F83D001A4B086898421BD010
:1027A0000868B0F1804F17D0174B0868984213D0D3
:1027B000164B086898420FD0154B086898420BD00A
:1027C000144B0868984207D0134B0868984203D00E
:1027D000124B086898420CD10868806800F0070224
:1027E000062A0CD00868006840F001000B681860E9
:1027F00005E00868006840F001000B6818600020E0
:10280000C6E700000000014000040040000800404E
:10281000000C00400004014000400140001800404E
:10282000014691F83D00012801D0012070470220A7
:1028300081F83D000868C06840F001000B68D8606E
:102840001A4B086898421BD00868B0F1804F17D027
:10285000174B0868984213D0164B086898420FD05F
:10286000154B086898420BD0144B0868984207D063
:10287000134B0868984203D0124B086898420CD159
:102880000868806800F00702062A0CD00868006813
:1028900040F001000B68186005E00868006840F02F
:1028A00001000B6818600020C0E700000000014034
:1028B0000004004000080040000C004000040140FB
:1028C00000400140001800402DE9F04104460D464B
:1028D000002700BF94F83C00012802D10220BDE887
:1028E000F081012084F83C0000BF022084F83D0004
:1028F0002068866826F0770626F47F462068866082
:102900002868502833D00CDC202850D004DC002864
:102910004BD0102851D149E0302849D040284CD123
:1029200039E060282DD0702807D0B0F5805F03D043
:10293000B0F5005F41D10DE041E0D5E902136A68CE
:10294000206801F030FC2068866846F07706206831
:10295000866034E0D5E902136A68206801F023FC40
:102960002068806840F480402168886027E0EA6839
:102970006968206801F008FD5021206801F01EFC04
:102980001DE0EA686968206801F011FD6021206897
:1029900001F014FC13E0EA686968206801F0F4FCB7
:1029A0004021206801F00AFC09E000BF00BF00BF21
:1029B0002968206801F002FC01E0012700BF00BF88
:1029C000012084F83D0000BF002084F83C0000BFD7
:1029D000384684E7704770B504462068C5682068AB
:1029E000066906F00200022819D105F0020002284B
:1029F00015D1401F21680861012020772068806977
:102A000000F0030018B12046FFF7E4FF05E0204680
:102A100000F032F9204600F02FFA0020207706F06F
:102A20000400042819D105F00400042815D1C0437E
:102A300021680861022020772068806900F44070D6
:102A400018B12046FFF7C6FF05E0204600F014F954
:102A5000204600F011FA0020207706F00800082830
:102A600019D105F00800082815D1C0432168086174
:102A7000042020772068C06900F0030018B12046C8
:102A8000FFF7A8FF05E0204600F0F6F8204600F02A
:102A9000F3F90020207706F01000102819D105F076
:102AA0001000102815D1C043216808610820207744
:102AB0002068C06900F4407018B12046FFF78AFF13
:102AC00005E0204600F0D8F8204600F0D5F90020B7
:102AD000207706F0010048B105F0010030B16FF039
:102AE000010021680861204600F04EFA06F08000DF
:102AF000802809D105F08000802805D1C0432168D5
:102B000008612046FFF750FD06F04000402809D13B
:102B100005F04000402805D1C043216808612046E7
:102B200000F03EFA06F02000202809D105F0200030
:102B3000202805D1C043216808612046FFF735FDF4
:102B400070BD000010B586B00446142101A8FDF741
:102B5000E1FB4249206888421ED100BF002000905E
:102B60003F48006840F010003D4908600846006892
:102B700000F01000009000BF00BF4FF4D44001905F
:102B8000022002900020039004900120059001A9EA
:102B90003448FEF76BFD5FE033492068884239D145
:102BA00000BF002000902E48006840F001002C4932
:102BB00008600846006800F00100009000BF00BFF8
:102BC00000BF002000900846006840F00200086046
:102BD0000846006800F00200009000BF00BFC0205F
:102BE00001900220029000200390049002200590A2
:102BF00001A91E48FEF73AFD032001900220029031
:102C00000020039004900220059001A91848FEF7C7
:102C10002DFD21E01749206888421DD100BF00200A
:102C200000900F48006840F002000D490860084617
:102C3000006800F00200009000BF00BF4FF4707009
:102C40000190022002900020039004900220059041
:102C500001A90748FEF70AFD06B010BD00000140BB
:102C600030380240001002400004004000000240E2
:102C7000000402400008004070472DE9F04104467E
:102C80000D461646002700BF94F83C00012802D1EB
:102C90000220BDE8F081012084F83C0000BF36B17D
:102CA000042E1BD0082E31D00C2E5ED145E02946D3
:102CB000206801F08DFA2068806940F008002168E2
:102CC00088612068806920F004002168886120689C
:102CD0008069296908432168886148E0294620689D
:102CE00001F0AEFA2068806940F4006021688861D4
:102CF0002068806920F4806021688861206880698C
:102D0000296940EA01202168886130E0294620686D
:102D100001F0D4FA2068C06940F008002168C86159
:102D20002068C06920F004002168C8612068C0697B
:102D3000296908432168C86119E02946206801F023
:102D4000F9FA2068C06940F400602168C861206811
:102D5000C06920F480602168C8612068C069296961
:102D600040EA01202168C86101E0012700BF00BFDF
:102D700000BF002084F83C0000BF384689E710B54A
:102D800004460CB9012010BD94F83D0028B900207C
:102D900084F83C00204600F025F8022084F83D002D
:102DA000211D206801F07EF9012084F8460000BF53
:102DB00084F83E0001213F2001554020015541206B
:102DC000015500BF00BF012084F842004320015597
:102DD000442001554520015500BF012084F83D00E5
:102DE0000020D0E708B5204A016891420FD100BF0A
:102DF000002100911D49096841F001011B4A116041
:102E00001146096801F00101009100BF2BE0184A4A
:102E10000168914211D100BF002100911349091F9F
:102E2000096841F00201114A121F11601146096838
:102E300001F00201009100BF15E00E4A01689142C5
:102E400011D100BF002100910849091F096841F014
:102E50000401064A121F11601146096801F00401BD
:102E6000009100BF00BF08BD00000140443802408F
:102E700000040040000800407047000070B50446A0
:102E80000D4615B994F83E000BE0042D02D13F2009
:102E9000005D06E0082D02D14020005D01E04120E8
:102EA000005D012801D0012070BD1DB9022084F809
:102EB0003E000EE0042D03D102213F20015508E021
:102EC000082D03D102214020015502E002214120BA
:102ED000015501222946206801F054F92349206850
:102EE000884203D022492068884201D1012000E0B5
:102EF000002028B12068406C40F4004021684864FC
:102F00001A49206888421BD02068B0F1804F17D042
:102F100018492068884213D01749206888420FD08A
:102F20001649206888420BD011492068884207D092
:102F300013492068884203D01249206888420CD186
:102F40002068806800F00706062E0CD02068006814
:102F500040F001002168086005E02068006840F04A
:102F600001002168086000209EE700000000014089
:102F7000000401400004004000080040000C004034
:102F8000004001400018004010B504460349206885
:102F9000884201D1FEF778FC10BD000000200040FF
:102FA00070477047704700002DE9F84F04462068CD
:102FB00005682068C668206847694FF00009CA465E
:102FC00005F00F09B9F1000F0AD105F0200038B162
:102FD00006F0200020B1204601F04CFABDE8F88F41
:102FE000B9F1000F7CD007F0010018B906F4907019
:102FF000002875D005F0010030B106F4807018B1DA
:10300000606C40F00100606405F0040030B107F02E
:10301000010018B1606C40F00200606405F002002D
:1030200030B107F0010018B1606C40F0040060643A
:1030300005F0080048B106F0200010B907F00100C3
:1030400018B1606C40F008006064606C002846D0E5
:1030500005F0200028B106F0200010B1204601F054
:1030600009FA20684069C0F3801A606C00F008001B
:1030700010B9BAF1000F2DD0204601F0B5F9206843
:10308000406900F04000402820D100BF00BF216807
:10309000143151E8001F21F040002168143141E84B
:1030A0000002002AF3D100BFE06B50B17F48E16B12
:1030B0000865E06BFEF7A4F888B1E06B016D884706
:1030C0000DE02046FFF76EFF09E009E02046FFF71C
:1030D00069FF04E02046FFF765FF002060647DE79C
:1030E000206B012878D105F01000002874D006F07C
:1030F00010000028FAD000BF00200090206800686F
:10310000009020684068009000BF00BF20684069C0
:1031100000F04000402870D1E06B006840681FFA62
:1031200080F8B8F1000F58D0A08D404555DDA4F8C7
:103130002E80E06BC069B0F5807F43D000BF00BF38
:1031400021680C3151E8001F21F4807021680C3196
:1031500041E80002002AF3D100BF00BF00BF216890
:10316000143151E8001F21F001002168143141E8B9
:103170000002002AF3D100BF00BF00BF2168143154
:1031800051E8001F21F040002168143141E800029D
:10319000002AF3D100BF202084F8420000202063E1
:1031A00000BF00BF21680C3151E8001F21F0100062
:1031B00021680C3141E80002002AF3D100BFE06B26
:1031C000FDF7C8FF02206063A08DE28D801A81B2F6
:1031D0002046FFF7E6FE0EE052E0A08D40450AD102
:1031E000E06BC069B0F5807F05D102206063A18DDE
:1031F0002046FFF7D6FEF1E6FFE7A08DE18D401AED
:103200001FFA80F8E08DD0B3B8F1000F37D000BFBF
:1032100000BF21680C3151E8001F21F49070216833
:103220000C3141E80002002AF3D100BF00BF00BF0B
:103230002168143151E8001F21F001002168143188
:1032400041E80002002AF3D100BF202084F84200A8
:103250000020206300BF00BF21680C3151E8001F2F
:1032600021F0100021680C3141E80002002AF3D15E
:1032700000BF0220606341462046FFF792FEADE6A4
:1032800005F0800030B106F0800018B1204601F052
:10329000A5FAA3E605F0400030B106F0400018B1F1
:1032A000204601F0D7F899E600BF97E6D74300081B
:1032B00010B504460CB9012010BDA06900B100E0B2
:1032C00000BF94F8410028B9002084F8400020464F
:1032D00000F02AF8242084F841002068C06820F417
:1032E00000502168C860204601F042F9206800695A
:1032F00020F49040216808612068406920F02A008D
:10330000216848612068C06840F400502168C860A6
:1033100000206064202084F8410084F842000020EE
:10332000606300BFC8E7000010B586B004461421F2
:1033300001A8FCF7EFFF3B492068884231D100BF6C
:10334000002000903848006840F0100036490860BE
:103350000846006800F01000009000BF00BF00BFEA
:103360000020009030481438006840F001002E49D9
:10337000143908600846006800F00100009000BFA2
:1033800000BF4FF4C0600190022002900020039023
:10339000032004900720059001A92448FEF766F950
:1033A0003DE023492068884239D100BF00200090C9
:1033B0001D48001F006840F400301B49091F0860C9
:1033C0000846006800F40030009000BF00BF00BF56
:1033D0000020009014481438006840F001001249A1
:1033E000143908600846006800F00100009000BF32
:1033F00000BF0C20019002200290002003900320C7
:1034000004900720059001A90848FEF72FF9002233
:1034100005212620FEF7FAFA2620FEF7E3FA06B089
:1034200010BD00000010014044380240000002407E
:103430000044004070B504460D46164694F842001C
:1034400020280BD105B10EB9012070BD00202063EA
:1034500032462946204601F0A1F9F6E70220F4E7BA
:1034600010B5044606492068884208D1054800780E
:1034700001F062FA012203490348FFF7DBFF10BDA8
:1034800000440040C8000020780300202DE9F84FD8
:1034900004460E46174699464FF0000A94F841003C
:1034A000202850D106B117B90120BDE8F88F0020BF
:1034B0006064212084F84100FEF7E0F98246A78489
:1034C000E784A068B0F5805F04D1206910B90025B9
:1034D000B04602E035464FF000081EE05346002299
:1034E00080212046CDF8009001F0A8F920B12020DD
:1034F00084F841000320D8E745B9B8F80000C0F3CC
:1035000008002168486008F1020803E02878216873
:1035100048606D1CE08C401EE084E08C0028DDD10A
:103520005346002240212046CDF8009001F086F954
:1035300020B1202084F841000320B6E7202084F841
:1035400041000020B1E70220AFE7704700BFFEE76F
:103550001FB5002000900190029003901548164975
:1035600008604FF400304860002113488160016119
:10357000017680F820104FF08051C1624FF06061F9
:1035800081620021C1600121C16180F83010416178
:10359000FDF76CFC08B1FDF718FB012000900190CD
:1035A0000620029069460448FDF712FB08B1FDF7BA
:1035B0000CFB1FBD002001401001002008B500BF1A
:1035C000002000900A48006840F480000849086024
:1035D0000846006800F48000009000BF00BF002291
:1035E00005213820FEF712FA3820FEF7FBF908BD56
:1035F000303802401CB51E4A00211E4803F00CF969
:103600001D4908600020182103464FF40072CDE9DF
:1036100000101AA11B4805F0C3F900201821034629
:103620008022CDE9001018A11A4805F0B9F9002050
:10363000182103468022CDE9001017A1194805F092
:10364000AFF90020182103468022CDE9001016A111
:10365000184805F0A5F90020182103464FF4007220
:10366000CDE9001014A1174805F09AF91CBD00001F
:103670008C8F0008A13F0008000000207769745F6C
:10368000696D7500D15D00086E72665F7265637664
:1036900000000000996300086368617267655F74E9
:1036A00061736B00E55700086E72665F73656E6448
:1036B00000000000316500086D6F76655F7461730E
:1036C0006B0000008960000800B587B0142102A8D3
:1036D000FCF720FE00BF002001905948006840F030
:1036E0008000574908600846006800F0800001909B
:1036F00000BF00BF00BF002001900846006840F0F6
:10370000010008600846006800F00100019000BF59
:1037100000BF00BF002001900846006840F0020092
:1037200008600846006800F00200019000BF00BF7A
:1037300000BF002001900846006840F010000860BB
:103740000846006800F01000019000BF00BF00BFF5
:10375000002001900846006840F008000860084614
:10376000006800F00800019000BF00BF00BF00200B
:1037700001900846006840F00400086008460068B0
:1037800000F00400019000BF00BF002289142D4802
:10379000FEF76EF800224FF400712B48FEF768F830
:1037A00000224FF4E0512948FEF762F84FF48050B0
:1037B00002900120039000200490059002A9214866
:1037C000FDF754FF4FF4807002904FF40410039003
:1037D0000120049002A91C48FDF748FF4FF4007037
:1037E000029001200390002004900220059002A97D
:1037F0001548FDF73BFF4FF4406002901120039005
:10380000002004900220059002A91048FDF72EFF29
:103810004FF4805002900120039000200490022079
:10382000059002A90948FDF721FF00220521172074
:10383000FEF7ECF81720FEF7D5F807B000BD000042
:103840003038024000040240000C024000080240F0
:1038500010B50E480E4908604FF482704860002190
:103860000B488160C160016141614FF40071816169
:103870001021C16100210162416281620A21C1629D
:10388000FEF7C6FC08B1FDF7A0F910BD00380040F6
:10389000B801002000B591B000200F9010901C21BD
:1038A00008A8FCF737FD20216846FCF733FD2F48B8
:1038B0002F490860A720486000212D48816044F608
:1038C0001F61C1600021016141618161FFF757FA09
:1038D00008B1FDF77AF900200F9010900FA9244845
:1038E000FEF79EFE08B1FDF770F9602008900020F9
:1038F00009900A900B900C900D900E90002208A950
:103900001B48FFF7BAF908B1FDF75FF9042208A9CF
:103910001748FFF7B2F908B1FDF757F9082208A9CF
:103920001348FFF7AAF908B1FDF74FF90C2208A9CF
:103930000F48FFF7A2F908B1FDF747F90020009002
:1039400001900290039004904FF4005005900020E5
:10395000079069460648FEF729FE08B1FDF735F9DC
:103960000348FFF7EFF811B000BD00000000014070
:103970001002002000B589B00020079008901C219B
:103980006846FCF7C7FC2448244908605320486077
:1039900000212248816044F61F61C160002101615D
:1039A0008161FFF7ECF908B1FDF70FF900200790EE
:1039B000089007A91948FEF733FE08B1FDF705F98D
:1039C000602000900020019002900490002269463F
:1039D0001248FFF752F908B1FDF7F7F804226946DB
:1039E0000E48FFF74AF908B1FDF7EFF808226946DB
:1039F0000A48FFF742F908B1FDF7E7F80C226946DB
:103A00000648FFF73AF908B1FDF7DFF80348FFF77A
:103A100099F809B000BD00000004004058020020E1
:103A200000B589B00020079008901C216846FCF77B
:103A300071FC244824490860532048600021224832
:103A4000816044F61F61C160002101618161FFF75F
:103A500096F908B1FDF7B9F800200790089007A97A
:103A60001948FEF7DDFD08B1FDF7AFF860200090C2
:103A70000020019002900490002269461248FFF74E
:103A8000FCF808B1FDF7A1F8042269460E48FFF7DB
:103A9000F4F808B1FDF799F8082269460A48FFF7DB
:103AA000ECF808B1FDF791F80C2269460648FFF7DB
:103AB000E4F808B1FDF789F80348FFF743F809B0C7
:103AC00000BD000000080040A002002000B587B043
:103AD00000200390049005900690019002901548F4
:103AE0001549086044F29F10486000211248816027
:103AF0006321C1600021016141618161FEF7EAFD3E
:103B000008B1FDF762F84FF48050039003A90A480A
:103B1000FEF7DAFE08B1FDF758F8202001900020EA
:103B2000029001A90448FEF77BFD08B1FDF74DF8AE
:103B300007B000BD00040140E802002010B50B48AA
:103B40000B4908604FF4E13048600021084881606B
:103B5000C16001610C21416100218161C161FFF7F8
:103B6000A7FB08B1FDF731F810BD000000100140BF
:103B70003003002010B50B480B4908604FF4165075
:103B80004860002108488160C16001610C214161E9
:103B900000218161C161FFF78BFB08B1FDF715F8CA
:103BA00010BD0000004400407803002000BFFEE785
:103BB00000BFFEE77CB504460E461546334601229B
:103BC00002212046009500F039F828B1606D40F0E0
:103BD0002000606503207CBD164800681821B0FBFA
:103BE000F1F01549B0FBF1F04FF47A7148430190C0
:103BF0006068B0F5827F0DD13346002280212046D7
:103C0000009500F01BF898B1606D40F020006065F1
:103C10000320E0E700BF019800B908E00198401ECA
:103C2000019020688068C0F3C0100028F3D100BF65
:103C30000020D0E71000002040420F002DE9F84F8F
:103C400004460D4690461E46DDF82890FDF716FE08
:103C5000A0EB0900371AFDF711FE82462C480068D8
:103C6000C0F3CB307843009046E0701C002843D06E
:103C7000FDF704FEA0EB0A00B84200D2A7BB206803
:103C8000406820F0E000216848606068B0F5827FFD
:103C90000DD1A068B0F5004F03D0A068B0F5806FDB
:103CA00005D12068006820F0400021680860A06A03
:103CB000B0F5005F0DD100BF2068006820F400500F
:103CC000216808602068006840F40050216808609E
:103CD00000BF012084F8510000BF002084F850008C
:103CE00000BF0320BDE8F88FFFE7009808B9002760
:103CF00002E00098401E0090206880682840A8429A
:103D000001D1012000E000204045AED10020E9E7CC
:103D10001000002070B586B004460D4600200590C6
:103D200000260EE13F2C40D104F0E6FE01908C48C5
:103D3000B0F97A0000EE100AB8EEC00ADFED890A89
:103D400080EE201A9FED880A21EE000A8DED020A0E
:103D50008348B0F97C0000EE100AB8EEC00ADFED2F
:103D6000810A80EE201A9FED800A21EE000A8DED77
:103D7000030A7B48B0F97E0000EE100AB8EEC00AD4
:103D8000DFED780A80EE201A9FED770A21EE000A17
:103D90008DED040A7548006830B1022305AA01A917
:103DA0007248006804F0CCFB00BF542C41D104F0F1
:103DB000A3FE00906A48B0F9A20000EE100AB8EE27
:103DC000C00ADFED680A80EE201A8DED011A644802
:103DD000B0F9A40000EE100AB8EEC00ADFED610AE7
:103DE00080EE201A8DED021A5D48B0F9A60000EEB3
:103DF000100AB8EEC00ADFED5B0A80EE201A8DEDE6
:103E0000031A5748B0F9A80000EE100AB8EEC00A2D
:103E1000DFED540A80EE201A8DED041A5448006834
:103E200030B1022305AA69465148006804F088FBB6
:103E300000BF362C40D104F05FFE01904848B0F935
:103E4000680000EE100AF8EEC00A9FED461A80EEF8
:103E5000810AF3EE000A20EE200A8DED020A4048A6
:103E6000B0F96A0000EE100AF8EEC00A9FED3D1AA4
:103E700080EE810AF3EE000A20EE200A8DED030A9F
:103E80003748B0F96C0000EE100AF8EEC00A9FED5A
:103E9000351A80EE810AF3EE000A20EE200A8DED3D
:103EA000040A3448006830B1022305AA01A9314848
:103EB000006804F045FB00BF392C40D104F01CFE23
:103EC00001902748B0F96E0000EE100AB8EEC00A63
:103ED0009FED241AC0EE010A9FED270A20EE800A0A
:103EE0008DED020A1E48B0F9700000EE100AB8EE1F
:103EF000C00A9FED1C1AC0EE010A9FED1F0A20EEBA
:103F0000800A8DED030A1648B0F9720000EE100A1F
:103F1000B8EEC00ADFED130A80EE201A9FED160AF4
:103F200021EE000A8DED040A1448006830B1022326
:103F300005AA01A91148006804F002FB00BF761C25
:103F4000641CAE42FFF4EEAE059838B14FF08050DD
:103F50000B490860BFF34F8FBFF36F8F06B070BD82
:103F6000DC4D00200000004700003443CC0000205E
:103F7000D0000020D40000200000FA44D800002027
:103F800004ED00E070B504460D46AAB24FF0FF33D1
:103F900021460248FFF77AFA70BD0000780300203E
:103FA00000BF012002F0E2FBFBE710B54FF0E0207C
:103FB000006904F08BFD012801D004F0E9F810BD80
:103FC00000B593B0302107A8FCF7A4F9142102A88A
:103FD000FCF7A0F900BF002001902548006840F0E0
:103FE0008050234908600846006800F08050019026
:103FF00000BF00BF00BF002001901E48006840F4D1
:1040000080401C4908600846006800F48040019028
:1040100000BF00BF0220079001200A9010200B90E3
:1040200002200D9000210E9108210F91A8211091DE
:10403000022111910421129107A8FDF79BFE08B1FE
:10404000FCF7C3FD0F200290022003900020049093
:104050004FF4A05005904FF480500690052102A81F
:10406000FDF726FD08B1FCF7B0FD13B000BD000060
:1040700040380240007000400348006840F470007F
:10408000014908607047000088ED00E010B5034862
:10409000FEF7A1FC0248FEF79EFC10BDE8020020DE
:1040A000C003002010B502682B4B98420ED0B0F12F
:1040B000804F0BD0294B984208D0294B984205D00D
:1040C000284B984202D0284B984203D122F070022C
:1040D0004B681A43204B984220D0B0F1804F1DD03E
:1040E0001E4B98421AD01E4B984217D01D4B984237
:1040F00014D01D4B984211D01C4B98420ED01C4B33
:1041000098420BD01B4B984208D01B4B984205D0CD
:104110001A4B984202D01A4B984203D122F44072B3
:10412000CB681A4322F080034C6943EA04028B688F
:10413000C3620B688362084B984202D00A4B9842D4
:1041400001D10B690363036843F004030360012397
:104150004361026010BD0000000001400004004007
:1041600000080040000C00400004014000400140F5
:10417000004401400048014000180040001C00407D
:104180000020004030B501F01F05012404FA05F3BA
:10419000046A9C430462046A01F01F0502FA05F5F3
:1041A0002C43046230BD30B50C46816821F47F4158
:1041B00042EA032525432943816030BD0A468168D0
:1041C00021F0700142F0070319438160704700003D
:1041D00030B5026A056A25F0010505624368846905
:1041E00024F0700424F003040D682C4322F0020232
:1041F0008D682A43104DA84200D103E00F4DA8421C
:1042000006D100BF22F00802CD682A4322F0040242
:10421000094DA84202D0094DA84207D123F480736A
:1042200023F400734D692B438D692B4343608461F4
:104230004D684563026230BD00000140000401404A
:1042400030B5026A056A25F0100505624368846985
:1042500024F4E04424F440740D6844EA052422F078
:1042600020028D6842EA0512124DA84200D103E0F7
:10427000114DA84207D100BF22F08002CD6842EA6A
:10428000051222F040020B4DA84202D00A4DA8426E
:1042900009D123F4806323F400634D6943EA850365
:1042A0008D6943EA8503436084614D6885630262DA
:1042B00030BD0000000001400004014030B5026A3A
:1042C000056A25F4807505624368C46924F07004AA
:1042D00024F003040D682C4322F400728D6842EA36
:1042E0000522124DA84200D103E0114DA84207D18A
:1042F00000BF22F40062CD6842EA052222F4806207
:104300000A4DA84202D00A4DA84209D123F4805395
:1043100023F400534D6943EA05138D6943EA0513FD
:104320004360C4614D68C563026230BD0000014056
:104330000004014030B5036A056A25F48055056222
:104340004468C26922F4E04222F440720D6842EAF5
:10435000052223F400538D6843EA0533084DA84233
:1043600002D0084DA84204D124F480444D6944EAA7
:1043700085144460C2614D680564036230BD00006D
:10438000000001400004014030B50B461446026AAB
:10439000056A25F001050562816921F0F00141EA15
:1043A000041122F00A021A438161026230BD30B565
:1043B0000B461446026A056A25F0100505628169FC
:1043C00021F4704141EA043122F0A00242EA0312D2
:1043D0008161026230BD70B50446A56B0020E8859E
:1043E0002846FEF7DFFD70BD00BF00BF02680C323B
:1043F00052E8002F22F4907102680C3242E8001358
:10440000002BF3D100BF00BF00BF0268143252E896
:10441000002F22F001010268143242E80013002B41
:10442000F3D100BF016B01290ED100BF00BF0268AC
:104430000C3252E8002F22F0100102680C3242E8E0
:104440000013002BF3D100BF202180F8421000217F
:104450000163704710B504462068C06820F0400032
:104460002168C860202084F841002046FFF76DF8DD
:10447000002010BDF8B504460025002694F842003F
:10448000222873D1A068B0F5805F0BD1206948B9AC
:10449000A66A20684068C0F308003080A06A801CCB
:1044A000A06214E0A56AA068B0F5805F03D0A068A0
:1044B00028B9206918B920684068287004E020688D
:1044C000406800F07F002870A06A401CA062E08D68
:1044D000401E80B2E085002846D12068C06820F0E8
:1044E00020002168C8602068C06820F480702168BE
:1044F000C8602068406920F00100216848612020E0
:1045000084F8420000206063206B012826D100203F
:10451000206300BF00BF21680C3151E8001F21F06B
:10452000100021680C3141E80002002AF3D100BFDD
:104530002068006800F0100010280AD100BF002099
:10454000009020680068009020684068009000BFDC
:1045500000BFA18D2046FEF724FD02E02046FEF7B5
:104560007FFF0020F8BD01E00020FBE70220F9E713
:104570002DE9F84F04462068006920F44050E168B6
:104580000843216808612169A068084361690843FC
:10459000E169084300902068C06849F20C618843D3
:1045A000009908432168C8602068406920F4407081
:1045B000A16908432168486176492068884203D090
:1045C00075492068884203D1FDF76CFB814602E003
:1045D000FDF758FB8146E069B0F5004F6CD1022031
:1045E0006168A0FB015003461920A9FB0070014639
:1045F0002A463846FBF744FE6421B0FBF1F04FEA4F
:10460000001A02206168A0FB01510B461920A9FB8A
:1046100000712A463846FBF733FE83460220616864
:10462000A0FB015003461920A9FB00712A46384619
:10463000FBF726FE6421B0FBF1F000EBC00101EBBB
:104640000010ABEB8000322101EBC0006421B0FB15
:10465000F1F000F0F8000AEB400A02206168A0FBCC
:10466000015003461920A9FB007001462A4638462E
:10467000FBF706FE834602206168A0FB015003465B
:104680001920A9FB00712A463846FBF7F9FD642181
:10469000B0FBF1F000EBC00101EB0010ABEB8000D0
:1046A000322101EBC0006421B0FBF1F000F0070003
:1046B0005044216888606AE004206168A0FB0150D2
:1046C00003461920A9FB007001462A463846FBF72D
:1046D000D7FD824604206168A0FB015003461920E3
:1046E000A9FB007001462A463846FBF7C9FD642144
:1046F000B0FBF1F000EBC00101EB0010AAEB800071
:10470000322101EB00106421B0FBF1F000F0F00A5F
:1047100004206168A0FB017003461920A9FB005129
:104720003A462846FBF7ACFD6421B0FBF1F00AEBFA
:10473000001A04206168A0FB01510B461920A9FB57
:1047400000712A463846FBF79BFD834604206168CA
:10475000A0FB015003461920A9FB007001462A4620
:104760003846FBF78DFD6421B0FBF1F000EBC00192
:1047700001EB0010ABEB8000322101EB0010642153
:10478000B0FBF1F000F00F00504421688860BDE8F4
:10479000F88F0000001001400014014010B50346DE
:1047A00099629A85DA8500205864222083F84200B5
:1047B000186928B11868C06840F480701C68E0600F
:1047C0001868406940F001001C6860611868C068A2
:1047D00040F020001C68E060002010BD014691F808
:1047E0004100212828D18868B0F5805F0BD1086985
:1047F00048B90A6A1088C0F308000B685860086A54
:10480000801C086205E00B6A581C086218780B6867
:104810005860C88C401E80B2C88458B90868C06807
:1048200020F080000B68D8600868C06840F0400045
:104830000B68D860002070470220FCE72DE9F843A0
:1048400004460D4617469846089E31E0701C70B32A
:10485000FDF714F8A0EB0800B04200D816B9032009
:10486000BDE8F8832068C06800F00400F8B1802D2E
:104870001ED0402D1CD020680068C0F3C000B0B12D
:1048800000BF002000902068006800902068406809
:10489000009000BF00BF2046FFF7A6FD082060641F
:1048A00000BF002084F8400000BF0120D8E7FFE7E8
:1048B000206800682840A84201D1012000E00020C3
:1048C000B842C3D00020CBE710B50248FEF76CFB1E
:1048D00010BD00007803002000BFFEE7014611B9BB
:1048E0006FF005007047024801600020FAE7000001
:1048F000B40000200246062A02D96FF00500704776
:1049000004480260044801700020044B186000BF96
:10491000F5E70000C0000020B8000020BC00002027
:10492000014611B96FF00500704702480160002090
:10493000FAE70000B00000202DE9FC4180467348F2
:10494000006808B9BDE8FC81714801680068401C36
:104950006F4A10606F4800F801806F4800680728B0
:104960005AD2DFE800F0055BC2C3045AC10000BFA1
:104970006848007855280CD065480068401E644996
:10498000086008466349491C0268481EFBF7A9FCF9
:10499000D8E75F4800680B283ED30A215D4800F045
:1049A0000FFA07465B48807AB8420CD05848006836
:1049B000401E5749086008465649491C0268481E6F
:1049C000FBF78FFCBEE7534880785249C97840EA2C
:1049D0000120ADF800004F4800794E49497940EA7E
:1049E0000120ADF802004B4880794A49C97940EA74
:1049F0000120ADF804004748007A4649497A40EA68
:104A00000120ADF806004349487804226946FBF7C7
:104A1000BBFF00203E4908606CE000BF3C480068D6
:104A2000022860D93B48407803280CD038480068F9
:104A3000401E3749086008463649491C0268481E2E
:104A4000FBF74FFC7EE733488078401D304909680A
:104A5000884200D976E72E480068401E2D49095C3F
:104A60002B480068801E2B4A105C41EA002528482C
:104A70000088801E81B2104600F086F90646B542D5
:104A80000CD023480068401E21490860084621498F
:104A9000491C0268481EFBF724FC53E71D48807838
:104AA0004510002414E0042000EB44001949085C80
:104AB000032101EB4401174A515C40EA012000B296
:104AC000164909682144164A22F81100601C84B274
:104AD000AC42E8DB2946114800680C4A126890474E
:104AE00000200B49086005E000BF00BF0020084916
:104AF000086000BF00BF06480068B0F5807F02D1A3
:104B000000200349086000BF1CE70000B00000203F
:104B1000BC000020DC4C0020C0000020C4000020AD
:104B2000DC4D0020014611B96FF0050070470248C6
:104B300001600020FAE70000A000002010B5044644
:104B400017480068042802D16FF0050010BD40F638
:104B5000FF72012120B2FBF70DFF10B96FF00500C5
:104B6000F4E74BF28851692000F052F810B16FF071
:104B70000200EBE70B48006820B1142009490968DE
:104B8000884702E06FF00400E0E7A1B2022000F0E5
:104B90003FF810B16FF00200D8E70020D6E7000020
:104BA000C0000020B400002010B50446164800687C
:104BB000042802D16FF0050010BD0D22012120B2A2
:104BC000FBF7D8FE10B96FF00500F5E74BF28851FE
:104BD000692000F01DF810B16FF00200ECE70B48FF
:104BE000006820B1142009490968884702E06FF085
:104BF0000400E1E7A1B2032000F00AF810B16FF061
:104C00000200D9E70020D7E7C0000020B400002050
:104C10002DE9FC4105460C46902D03D36FF00500AD
:104C2000BDE8FC8149480068072872D2DFE800F03F
:104C300007234E6B04224D006FF00500F0E7444857
:104C4000006810B96FF00400EAE7FF208DF800005B
:104C5000AA208DF80100E8B28DF80200E0B28DF8CC
:104C6000030020128DF8040005216846384A1268B6
:104C7000904768E000BF3648006810B96FF0040044
:104C8000CEE7344800788DF8000006208DF801004A
:104C9000280A8DF80200E8B28DF8030020128DF882
:104CA0000400E0B28DF805000621684600F06CF8BB
:104CB000064630128DF80600F0B28DF80700082184
:104CC0006846234A126890473DE000BF22480068CA
:104CD00010B96FF00400A3E7FF208DF80000AA20B0
:104CE0008DF80100E8B28DF80200E0B28DF8030003
:104CF00020128DF804000522694616480078164BEC
:104D00001B6898471FE01548006818B96FF0040049
:104D100086E715E0E0B28DF8000020128DF8010062
:104D2000E9B20C4A12785206100E02236A460B4F63
:104D30003F68B847012802D06FF0020070E702E038
:104D40006FF005006CE700BF002069E7C00000209D
:104D5000A0000020B8000020AC000020A40000202B
:104D60004100080218BF04200A0E18BF40F00100DD
:104D70004FF07F4232EA010108BF40F002000128F3
:104D800008BF05207047000070B503460C46FF259C
:104D9000FF26002200BF00BF09E0985C80EA050101
:104DA0000548405C80EA06050448465C521CA24265
:104DB000F3DB46EA052070BDD08F0008D0900008D4
:104DC00010B502460B460020002103E0545C044469
:104DD000E0B2491C9942F9D310BD000002480068B6
:104DE000C0F30220704700000CED00E010B5002871
:104DF00004DB0A07130E054A135406E00A07140ED3
:104E0000034A00F00F031B1FD45410BD00E400E060
:104E100018ED00E0EFF305807047000010EE100A77
:104E200010B510EE901A4FF0684202EB40032DEDE2
:104E3000028BB3F1654F3CBF02EB4102B2F1654F0B
:104E40007CD200BFC0F3C753C1F3C7529A1A1B2AC2
:104E500009DD10F0004F14BF9FED6E0A9FED6E0A42
:104E6000BDEC028B10BD12F11A0F1BDA11F0004FCE
:104E700009D010F0004F0CBF9FED680A9FED680A43
:104E8000BDEC028B10BD80EE208A18EE100AFFF7F1
:104E900067FF042808BF00F085FAB0EE480ABDECB1
:104EA000028B10BD4200B2EB410F37D910F0004F1A
:104EB00019BFDFED5C1A9FED5C1ADFED5C1A9FED08
:104EC0005C1AB0EE602A0A46F1EE400A80F000411A
:104ED000B0EE420A10460A1A5200B2F1807F34D274
:104EE000484010F0004FDFED532A9FED533A1DBFAD
:104EF000BEEE002A71EEE21A31EE431AB6EE002A37
:104F000004BF71EEA21A31EE031AF0EE402A42EE0F
:104F1000602A40EE020A82EEA02A18E011F0004F4B
:104F200004BF9FED461AF0EE411AD4D010F0004FA6
:104F30001CBFDFED431A9FED431A00E026E004BFDB
:104F4000DFED411A9FED411AC5E780EE202A22EEDF
:104F5000020ADFED3F0ADFED3F2ABDEC028B40EE97
:104F6000202ADFED3D0A40EE220ADFED3C2A40EE2A
:104F7000202ADFED3B0A40EE220A22EE000A00EE74
:104F8000201A31EE020A30EE210A10BD4FF07F42A6
:104F9000B2EB400F28BFB2EB410F05D2BDEC028B44
:104FA000BDE8104000F0F2B940EA01035B0008BF21
:104FB00041F0FF410BD0B2EB400F08BFB2EB410F05
:104FC00008D120F0804000EE100A21F0804100EE70
:104FD000901A37E7B2EB400F12BF5FEA410240F090
:104FE000FF4001F000413FF42DAF4A0092EA400338
:104FF0003FF528AF002AACBF9FED1A1A9FED1A1A91
:1050000020EE010A60EE810A10EE100A10EE901AEE
:1050100018E70000DB0FC9BFDB0FC93FDB0F4940BA
:10502000DB0F49C00000C9BF22AAFDB90000C93F7B
:1050300022AAFD390060ED3EC30ACE370000000011
:10504000000049C022AA7DBA0000494022AA7D3A48
:105050002DAD65BD8FB8D53D0FB511BE61C84C3EB5
:10506000A8AAAABE0000804F0000802F10EE101AE0
:1050700008B5444A6846B2EB410F28D94FF0E640E4
:10508000B0EB410F94BF00204FF0FF30009000982C
:10509000002861DB60EE000A10F0010F45D010F02F
:1050A000020FDFED391A9FED391A00EEE11ADFED3C
:1050B000381A40EE811A21EEA01AF0EE400A40EEB6
:1050C000010A08BFF1EE600AB0EE600A08BD314B7C
:1050D00021F0004293423CD911F0004FDFED2E0A3F
:1050E00020EE201ADFED2D0A19BF31EE601A71EEA5
:1050F000200A31EE201A71EE600ABDEEE01A11EEC0
:10510000100A9FED271A00F0030000EEC10A9FED80
:10511000251A009000EEC10A9FED231A00EEC10A85
:105120009FED221A00EEC10AB1E79FED211A9FED13
:10513000210A10F0020F00EE810A9FED1F1A00EE07
:10514000801AB7EE000A00EE810A18BFB1EE400ADD
:1051500008BD00F02FF99AE710EE100A4000B0F1F8
:105160007F4F3CBFB7EE000A08BD07D14FF00100EA
:1051700000F0DAF9BDE8084000F00CB9BDE80840DD
:1051800000F001B9B61F927E336D4C39DA82083CCB
:10519000A0AA2ABE490E494683F9223F0000004BCF
:1051A0000000C93F00A0FD390020A2331A61342C51
:1051B000B93AB2BACA9F2A3DDDFFFFBE00B510EE74
:1051C000101A2DED028B81B0524A6846B2EB410FA6
:1051D0002ED94FF0E640B0EB410F94BF00204FF0C6
:1051E000FF3000900098B0EE408A00286ADB10F093
:1051F000010F4BD068EE080A9FED471A9FED470A52
:1052000000EE810A9FED461A10F0020F00EE801AA0
:10521000B7EE000A00EE810A02BF01B0BDEC028BBE
:1052200000BD00BF01B0B1EE400ABDEC028B00BD75
:105230003C4B21F00042934241D911F0004FDFED89
:105240003A0A20EE201ADFED390A19BF31EE601A52
:1052500071EE200A31EE201A71EE600ABDEEE01AFE
:1052600011EE100A9FED321A00F0030000EEC10AA1
:105270009FED301A009000EEC10A9FED2F1A00EE4C
:10528000C10A9FED2E1A00EEC10AABE728EE080A0C
:105290009FED2B1ADFED2B0A10F0020F40EE410AB2
:1052A0009FED291A00EE201A61EE000AB0EE480ABE
:1052B00008EE200AB6D101B0BDEC028B00BD00F0B3
:1052C00079F88FE718EE100A4000B0F17F4F0DD249
:1052D00018EE100AFFF744FD042808BF00F062F83A
:1052E000B0EE480A01B0BDEC028B00BD09D101202F
:1052F00000F01AF901B0BDEC028B5DF804EB00F090
:1053000049B801B0B0EE480ABDEC028B5DF804EB81
:1053100000F039B8B61F927EB93AB2BACA9F2A3D98
:10532000DDFFFFBE490E494683F9223F0000004BD6
:105330000000C93F00A0FD390020A2331A61342CBF
:10534000336D4C39DA82083CA0AA2ABE10B52DED87
:10535000028BB1EEC08A18EE100A20F00040C0F1B6
:10536000FF40C00F0AD010EE100A20F00040C0F13C
:10537000FF40C00F04BF012000F0D6F8B0EE480A8D
:10538000BDEC028B10BD30EE000A704730EE200AF3
:1053900070470000DFED020A80EEA00A70470000AF
:1053A000000000009FED020A20EE000A7047000096
:1053B000000000102DE9F0014FF07F42B2EB410FE9
:1053C0009FBF4FF0FF310160BDE8F00170474FF023
:1053D000004242EA0123C1F3C752783A551112F054
:1053E0001F0C434CCCF120067C44C1F3C752A2F100
:1053F00078024FEA621204EB820254F8254008BF9B
:10540000D2E9015612D0556804FA0CF425FA06F7D1
:105410003C43976805FA0CF527FA06F8D26807FAB4
:105420000CFCF24045EA08054CEA0206A4FB034CDA
:10543000A5FB0352A6FB03631D449D4234BF012616
:1054400000261319334416B1934202D903E0934264
:1054500001D2012200E00022624402F1200C9206F7
:10546000DC0C42EA443200EE102A5B03DFED210A35
:10547000F8EEC01A00EE103A4FEA9C1C11F0004FF3
:10548000B8EE400AC0F800C020EE201A00EE105A14
:10549000DFED190AB8EE400A20EE200A71EE810A0B
:1054A00070EE800A10EE902A02F500626FF30B0294
:1054B00000EE902A70EEE11A31EEC11ADFED101AFB
:1054C00030EE411A9FED0D0A20EE800A01EE210A0E
:1054D0009FED0C1A00EE810A04BFBDE8F001704791
:1054E000CCF180510160BDE8F001B1EE400A704797
:1054F00084400000000000360000802C22AAFD2914
:10550000DB0FC92F0000C92F02E008C8121F08C115
:10551000002AFAD170477047002001E001C1121F34
:10552000002AFBD170470000014908607047000065
:105530000C01002001B52DED040B83B090ED000AA5
:10554000DDED030A20EE200AD0ED010A9DED041ADC
:1055500000EE810AD0ED020A9DED051A00EE810AE7
:105560008DED000A90ED030ADDED030A20EE200A1E
:10557000D0ED040A9DED041A00EE810AD0ED050A73
:105580009DED051A00EE810A8DED010A90ED060AE7
:10559000DDED030A20EE200AD0ED070A9DED041A86
:1055A00000EE810AD0ED080A9DED051A00EE810A91
:1055B0008DED020A9DED000ADDED010A9DED021A56
:1055C00008B000BD2DE9F04105460E461746002201
:1055D0004FF480510B48FCF74BF905F01F0002F027
:1055E000B3F8002404E0FF2002F0AEF83055641C4C
:1055F000BC42F8DB012211030248FCF739F9BDE88F
:10560000F0810000000402402DE9F04105460E46FD
:10561000174600224FF480510B48FCF729F905F09A
:105620001F0101F1200002F08FF8002403E0305D3B
:1056300002F08AF8641CBC42F9DB01221103024823
:10564000FCF716F9BDE8F08100040240F0B52DED3D
:10565000028B93B007460E461546B0EE408A1C46B4
:1056600095ED010ADFED5B0A20EE200ADFED5A0A14
:1056700080EE201A8DED101A95ED020ADFED550A25
:1056800020EE200ADFED540A80EE201A8DED111A6B
:1056900095ED030ADFED4F0A20EE200ADFED4E0AFA
:1056A00080EE201A8DED121A9DED121ADDED110A11
:1056B0009DED100A3846FFF73DFF8DED0D0ACDED4B
:1056C0000E0A8DED0F1A06EB4601444A02EB8100EB
:1056D000DFED431A90ED021AD0ED010A90ED000AB9
:1056E00001F07EFF8DED0A0ACDED0B0A8DED0C1A4F
:1056F0009DED0C1ADDED0B0A9DED0A0A3846FFF709
:1057000019FF8DED070ACDED080A8DED091ADDEDC3
:10571000092A9DED082ADDED071A9DED0F1ADDED32
:105720000E0A9DED0D0A00F0EAF98DED040ACDEDAB
:10573000050A8DED061A9DED040AB1EE400A8DEDC5
:10574000040A9DED050AB1EE400A8DED050A9DEDB6
:10575000060AB1EE400A8DED060AB0EE480A00F0E6
:105760006FFC8DED010ACDED020A8DED031A03F0F9
:10577000BDF920609DED040A84ED010A9DED050A46
:1057800084ED020ADDED040A60EEA00A9DED051A23
:10579000DDED051A41EE210AB0EE600AFFF7D6FDF5
:1057A00084ED040A9DED022AF0EE421A9DED012AD5
:1057B000B0EE421A9DED052AF0EE420A9DED042A54
:1057C000B0EE420A00F040FA84ED030A13B0BDECDB
:1057D000028BF0BDDA0F494000003443009200080C
:1057E0009A99993E2DED0A8B84B003F069F98949A5
:1057F000086000220421012002F0E4FC86490860D0
:1058000000220121084602F0DDFC8449086084483A
:10581000FCF7B8FF012283498348FBF7BDFB9FEDEE
:10582000830A8DED030A0A2002909FED810AF0EEB3
:1058300040AAB2EE000AB0EE40BAB1EE040AF0EEB1
:1058400040BA9FED7A0AB0EE408A9FED780AB0EE3A
:10585000409A9FED760AF0EE408A9FED740AB0EE12
:1058600040CA9FED720AF0EE409A002603F03EF91E
:10587000019000200090CCE0002269466748006853
:1058800002F094FF01281CD19DF80000012809D1E5
:1058900001269FED660AF0EE408A9FED640AB0EEA5
:1058A000409A0EE09DF8000002280AD1002601F07F
:1058B00021FD9FED5E0AF0EE408A9FED5C0AB0EE9E
:1058C000409A002203A95448006802F0B7FE002263
:1058D00002A95848006802F0B1FE002E7ED09DF863
:1058E000080000EE100AB8EE400AF0EE40CA9DED46
:1058F000030A3CEEC00AB0EE408AB5EEC08AF1EE73
:1059000010FA0AD801F0F6FC9FED480AF0EE408A42
:105910009FED460AB0EE409A75E0B7EE000AB4EE8D
:10592000C08AF1EE10FA08DD01F0EEFC9FED3F0AAF
:10593000F0EE408AB0EE489A65E0B7EE000AB4EEA9
:10594000C08AF1EE10FA5DD8B5EEC08AF1EE10FA19
:1059500058DD9FED390AB0EE40AAB0EE680A08EEB5
:105960000A0AF0EE408AB1EE041AF9EE040AB0EE2B
:10597000680A00F0AFF8F0EE408A38EE490AC0EE4F
:105980000A0AB0EE60CAB0EE489A2AEE880A0BEE18
:10599000280A0BEE8C0AF0EE409A9FED281ADFEDF4
:1059A000230AB0EE690A00F095F8F0EE409A9FEDF8
:1059B000240A29EE800ADFED210A80EE201ABCEECF
:1059C000C10A10EE104AC4F1C8056CB101F09CFC8C
:1059D0004FF47A7060434FF47A7100E014E0B0FB4A
:1059E000F1F7384602F0C4F85DB101F083FC4FF4E2
:1059F0007A7068434FF47A71B0FBF1F7384602F0E1
:105A0000B7F806E000BF00BF142101A802F0DEF8DD
:105A100000BF31E7F8000020FC000020000100205A
:105A2000E8020020F4000020100100200000000027
:105A300000007042F00000200AD7A33C0000C842DA
:105A4000000048432DE9F0412DED088B05460E4638
:105A5000D5ED010AB0EE600AFFF708FBF0EE408AD0
:105A6000D5ED010AB0EE600AFFF7A8FBB0EE409A50
:105A70004FF0FF379FED160AF0EE409A002420E029
:105A800006EBC40090ED010AB0EE40AAB0EE4A0A5F
:105A9000FFF7ECFAF0EE40AAB0EE4A0AFFF78EFBF1
:105AA000B0EE40BA2AEEA80A0BEE090AB0EE408A20
:105AB000B4EEE98AF1EE10FA02D2F0EE489A2746E7
:105AC000641C032CDCDB3846BDEC088BBDE8F081A0
:105AD000286B6E4EF0EE401AF4EEE01AF1EE10FA7A
